{
	"contracts/Auction.sol": {
		"Auction": {
			"abi": [
				{
					"inputs": [],
					"stateMutability": "nonpayable",
					"type": "constructor"
				},
				{
					"inputs": [],
					"name": "auctionStatus",
					"outputs": [
						{
							"internalType": "enum Auction.AuctionStatus",
							"name": "",
							"type": "uint8"
						}
					],
					"stateMutability": "view",
					"type": "function"
				},
				{
					"inputs": [],
					"name": "auctionWinner",
					"outputs": [
						{
							"internalType": "address",
							"name": "",
							"type": "address"
						}
					],
					"stateMutability": "view",
					"type": "function"
				},
				{
					"inputs": [],
					"name": "cancelAuction",
					"outputs": [],
					"stateMutability": "nonpayable",
					"type": "function"
				},
				{
					"inputs": [],
					"name": "endAuction",
					"outputs": [],
					"stateMutability": "nonpayable",
					"type": "function"
				},
				{
					"inputs": [],
					"name": "endTime",
					"outputs": [
						{
							"internalType": "uint256",
							"name": "",
							"type": "uint256"
						}
					],
					"stateMutability": "view",
					"type": "function"
				},
				{
					"inputs": [],
					"name": "minPrice",
					"outputs": [
						{
							"internalType": "uint256",
							"name": "",
							"type": "uint256"
						}
					],
					"stateMutability": "view",
					"type": "function"
				},
				{
					"inputs": [],
					"name": "owner",
					"outputs": [
						{
							"internalType": "address",
							"name": "",
							"type": "address"
						}
					],
					"stateMutability": "view",
					"type": "function"
				},
				{
					"inputs": [],
					"name": "placeBid",
					"outputs": [],
					"stateMutability": "payable",
					"type": "function"
				},
				{
					"inputs": [
						{
							"internalType": "uint256",
							"name": "endTime_",
							"type": "uint256"
						}
					],
					"name": "startAuction",
					"outputs": [],
					"stateMutability": "nonpayable",
					"type": "function"
				},
				{
					"inputs": [],
					"name": "startTime",
					"outputs": [
						{
							"internalType": "uint256",
							"name": "",
							"type": "uint256"
						}
					],
					"stateMutability": "view",
					"type": "function"
				},
				{
					"inputs": [],
					"name": "withdrawBid",
					"outputs": [],
					"stateMutability": "nonpayable",
					"type": "function"
				}
			],
			"devdoc": {
				"kind": "dev",
				"methods": {},
				"version": 1
			},
			"evm": {
				"assembly": "    /* \"contracts/Auction.sol\":28:3153  contract Auction {\r... */\n  mstore(0x40, 0x80)\n    /* \"contracts/Auction.sol\":144:155  0.001 ether */\n  0x038d7ea4c68000\n    /* \"contracts/Auction.sol\":121:155  uint public minPrice = 0.001 ether */\n  0x03\n  sstore\n    /* \"contracts/Auction.sol\":384:469  constructor() {\r... */\n  callvalue\n  dup1\n  iszero\n  tag_1\n  jumpi\n  0x00\n  dup1\n  revert\ntag_1:\n  pop\n    /* \"contracts/Auction.sol\":411:421  msg.sender */\n  caller\n    /* \"contracts/Auction.sol\":403:408  owner */\n  0x00\n  dup1\n    /* \"contracts/Auction.sol\":403:421  owner = msg.sender */\n  0x0100\n  exp\n  dup2\n  sload\n  dup2\n  0xffffffffffffffffffffffffffffffffffffffff\n  mul\n  not\n  and\n  swap1\n  dup4\n  0xffffffffffffffffffffffffffffffffffffffff\n  and\n  mul\n  or\n  swap1\n  sstore\n  pop\n    /* \"contracts/Auction.sol\":442:464  AuctionStatus.InActive */\n  0x00\n    /* \"contracts/Auction.sol\":426:439  auctionStatus */\n  0x07\n  0x00\n    /* \"contracts/Auction.sol\":426:464  auctionStatus = AuctionStatus.InActive */\n  0x0100\n  exp\n  dup2\n  sload\n  dup2\n  0xff\n  mul\n  not\n  and\n  swap1\n  dup4\n  0x03\n  dup2\n  gt\n  iszero\n  tag_4\n  jumpi\n  tag_5\n  tag_6\n  jump\t// in\ntag_5:\ntag_4:\n  mul\n  or\n  swap1\n  sstore\n  pop\n    /* \"contracts/Auction.sol\":28:3153  contract Auction {\r... */\n  jump(tag_7)\n    /* \"#utility.yul\":7:187   */\ntag_6:\n    /* \"#utility.yul\":55:132   */\n  0x4e487b7100000000000000000000000000000000000000000000000000000000\n    /* \"#utility.yul\":52:53   */\n  0x00\n    /* \"#utility.yul\":45:133   */\n  mstore\n    /* \"#utility.yul\":152:156   */\n  0x21\n    /* \"#utility.yul\":149:150   */\n  0x04\n    /* \"#utility.yul\":142:157   */\n  mstore\n    /* \"#utility.yul\":176:180   */\n  0x24\n    /* \"#utility.yul\":173:174   */\n  0x00\n    /* \"#utility.yul\":166:181   */\n  revert\n    /* \"contracts/Auction.sol\":28:3153  contract Auction {\r... */\ntag_7:\n  dataSize(sub_0)\n  dup1\n  dataOffset(sub_0)\n  0x00\n  codecopy\n  0x00\n  return\nstop\n\nsub_0: assembly {\n        /* \"contracts/Auction.sol\":28:3153  contract Auction {\r... */\n      mstore(0x40, 0x80)\n      jumpi(tag_1, lt(calldatasize, 0x04))\n      shr(0xe0, calldataload(0x00))\n      dup1\n      0x8fa8b790\n      gt\n      tag_13\n      jumpi\n      dup1\n      0x8fa8b790\n      eq\n      tag_7\n      jumpi\n      dup1\n      0x9d6a0f28\n      eq\n      tag_8\n      jumpi\n      dup1\n      0xb37a8be3\n      eq\n      tag_9\n      jumpi\n      dup1\n      0xe45be8eb\n      eq\n      tag_10\n      jumpi\n      dup1\n      0xecfc7ecc\n      eq\n      tag_11\n      jumpi\n      dup1\n      0xfe67a54b\n      eq\n      tag_12\n      jumpi\n      jump(tag_1)\n    tag_13:\n      dup1\n      0x065de74c\n      eq\n      tag_2\n      jumpi\n      dup1\n      0x3197cbb6\n      eq\n      tag_3\n      jumpi\n      dup1\n      0x37271cc7\n      eq\n      tag_4\n      jumpi\n      dup1\n      0x78e97925\n      eq\n      tag_5\n      jumpi\n      dup1\n      0x8da5cb5b\n      eq\n      tag_6\n      jumpi\n    tag_1:\n      0x00\n      dup1\n      revert\n        /* \"contracts/Auction.sol\":2189:2531  function startAuction(uint endTime_) external onlyOwner {\r... */\n    tag_2:\n      callvalue\n      dup1\n      iszero\n      tag_14\n      jumpi\n      0x00\n      dup1\n      revert\n    tag_14:\n      pop\n      tag_15\n      0x04\n      dup1\n      calldatasize\n      sub\n      dup2\n      add\n      swap1\n      tag_16\n      swap2\n      swap1\n      tag_17\n      jump\t// in\n    tag_16:\n      tag_18\n      jump\t// in\n    tag_15:\n      stop\n        /* \"contracts/Auction.sol\":98:117  uint public endTime */\n    tag_3:\n      callvalue\n      dup1\n      iszero\n      tag_19\n      jumpi\n      0x00\n      dup1\n      revert\n    tag_19:\n      pop\n      tag_20\n      tag_21\n      jump\t// in\n    tag_20:\n      mload(0x40)\n      tag_22\n      swap2\n      swap1\n      tag_23\n      jump\t// in\n    tag_22:\n      mload(0x40)\n      dup1\n      swap2\n      sub\n      swap1\n      return\n        /* \"contracts/Auction.sol\":1572:2181  function withdrawBid() external {\r... */\n    tag_4:\n      callvalue\n      dup1\n      iszero\n      tag_24\n      jumpi\n      0x00\n      dup1\n      revert\n    tag_24:\n      pop\n      tag_25\n      tag_26\n      jump\t// in\n    tag_25:\n      stop\n        /* \"contracts/Auction.sol\":73:94  uint public startTime */\n    tag_5:\n      callvalue\n      dup1\n      iszero\n      tag_27\n      jumpi\n      0x00\n      dup1\n      revert\n    tag_27:\n      pop\n      tag_28\n      tag_29\n      jump\t// in\n    tag_28:\n      mload(0x40)\n      tag_30\n      swap2\n      swap1\n      tag_23\n      jump\t// in\n    tag_30:\n      mload(0x40)\n      dup1\n      swap2\n      sub\n      swap1\n      return\n        /* \"contracts/Auction.sol\":49:69  address public owner */\n    tag_6:\n      callvalue\n      dup1\n      iszero\n      tag_31\n      jumpi\n      0x00\n      dup1\n      revert\n    tag_31:\n      pop\n      tag_32\n      tag_33\n      jump\t// in\n    tag_32:\n      mload(0x40)\n      tag_34\n      swap2\n      swap1\n      tag_35\n      jump\t// in\n    tag_34:\n      mload(0x40)\n      dup1\n      swap2\n      sub\n      swap1\n      return\n        /* \"contracts/Auction.sol\":2943:3150  function cancelAuction() external onlyOwner {\r... */\n    tag_7:\n      callvalue\n      dup1\n      iszero\n      tag_36\n      jumpi\n      0x00\n      dup1\n      revert\n    tag_36:\n      pop\n      tag_37\n      tag_38\n      jump\t// in\n    tag_37:\n      stop\n        /* \"contracts/Auction.sol\":344:378  AuctionStatus public auctionStatus */\n    tag_8:\n      callvalue\n      dup1\n      iszero\n      tag_39\n      jumpi\n      0x00\n      dup1\n      revert\n    tag_39:\n      pop\n      tag_40\n      tag_41\n      jump\t// in\n    tag_40:\n      mload(0x40)\n      tag_42\n      swap2\n      swap1\n      tag_43\n      jump\t// in\n    tag_42:\n      mload(0x40)\n      dup1\n      swap2\n      sub\n      swap1\n      return\n        /* \"contracts/Auction.sol\":584:751  function auctionWinner() external view returns (address) {\r... */\n    tag_9:\n      callvalue\n      dup1\n      iszero\n      tag_44\n      jumpi\n      0x00\n      dup1\n      revert\n    tag_44:\n      pop\n      tag_45\n      tag_46\n      jump\t// in\n    tag_45:\n      mload(0x40)\n      tag_47\n      swap2\n      swap1\n      tag_35\n      jump\t// in\n    tag_47:\n      mload(0x40)\n      dup1\n      swap2\n      sub\n      swap1\n      return\n        /* \"contracts/Auction.sol\":121:155  uint public minPrice = 0.001 ether */\n    tag_10:\n      callvalue\n      dup1\n      iszero\n      tag_48\n      jumpi\n      0x00\n      dup1\n      revert\n    tag_48:\n      pop\n      tag_49\n      tag_50\n      jump\t// in\n    tag_49:\n      mload(0x40)\n      tag_51\n      swap2\n      swap1\n      tag_23\n      jump\t// in\n    tag_51:\n      mload(0x40)\n      dup1\n      swap2\n      sub\n      swap1\n      return\n        /* \"contracts/Auction.sol\":759:1564  function placeBid() external payable {\r... */\n    tag_11:\n      tag_52\n      tag_53\n      jump\t// in\n    tag_52:\n      stop\n        /* \"contracts/Auction.sol\":2539:2938  function endAuction() external onlyOwner {\r... */\n    tag_12:\n      callvalue\n      dup1\n      iszero\n      tag_54\n      jumpi\n      0x00\n      dup1\n      revert\n    tag_54:\n      pop\n      tag_55\n      tag_56\n      jump\t// in\n    tag_55:\n      stop\n        /* \"contracts/Auction.sol\":2189:2531  function startAuction(uint endTime_) external onlyOwner {\r... */\n    tag_18:\n        /* \"contracts/Auction.sol\":515:525  msg.sender */\n      caller\n        /* \"contracts/Auction.sol\":506:525  owner == msg.sender */\n      0xffffffffffffffffffffffffffffffffffffffff\n      and\n        /* \"contracts/Auction.sol\":506:511  owner */\n      0x00\n      dup1\n      sload\n      swap1\n      0x0100\n      exp\n      swap1\n      div\n      0xffffffffffffffffffffffffffffffffffffffff\n      and\n        /* \"contracts/Auction.sol\":506:525  owner == msg.sender */\n      0xffffffffffffffffffffffffffffffffffffffff\n      and\n      eq\n        /* \"contracts/Auction.sol\":498:562  require(owner == msg.sender, \"Ownable: caller is not the owner\") */\n      tag_58\n      jumpi\n      mload(0x40)\n      0x08c379a000000000000000000000000000000000000000000000000000000000\n      dup2\n      mstore\n      0x04\n      add\n      tag_59\n      swap1\n      tag_60\n      jump\t// in\n    tag_59:\n      mload(0x40)\n      dup1\n      swap2\n      sub\n      swap1\n      revert\n    tag_58:\n        /* \"contracts/Auction.sol\":2275:2297  AuctionStatus.InActive */\n      0x00\n        /* \"contracts/Auction.sol\":2258:2297  auctionStatus == AuctionStatus.InActive */\n      0x03\n      dup2\n      gt\n      iszero\n      tag_62\n      jumpi\n      tag_63\n      tag_64\n      jump\t// in\n    tag_63:\n    tag_62:\n        /* \"contracts/Auction.sol\":2258:2271  auctionStatus */\n      0x07\n      0x00\n      swap1\n      sload\n      swap1\n      0x0100\n      exp\n      swap1\n      div\n      0xff\n      and\n        /* \"contracts/Auction.sol\":2258:2297  auctionStatus == AuctionStatus.InActive */\n      0x03\n      dup2\n      gt\n      iszero\n      tag_65\n      jumpi\n      tag_66\n      tag_64\n      jump\t// in\n    tag_66:\n    tag_65:\n      eq\n        /* \"contracts/Auction.sol\":2250:2327  require(auctionStatus == AuctionStatus.InActive, \"Auction is already active\") */\n      tag_67\n      jumpi\n      mload(0x40)\n      0x08c379a000000000000000000000000000000000000000000000000000000000\n      dup2\n      mstore\n      0x04\n      add\n      tag_68\n      swap1\n      tag_69\n      jump\t// in\n    tag_68:\n      mload(0x40)\n      dup1\n      swap2\n      sub\n      swap1\n      revert\n    tag_67:\n        /* \"contracts/Auction.sol\":2351:2366  block.timestamp */\n      timestamp\n        /* \"contracts/Auction.sol\":2340:2348  endTime_ */\n      dup2\n        /* \"contracts/Auction.sol\":2340:2366  endTime_ > block.timestamp */\n      gt\n        /* \"contracts/Auction.sol\":2332:2394  require(endTime_ > block.timestamp, \"End time is in the past\") */\n      tag_70\n      jumpi\n      mload(0x40)\n      0x08c379a000000000000000000000000000000000000000000000000000000000\n      dup2\n      mstore\n      0x04\n      add\n      tag_71\n      swap1\n      tag_72\n      jump\t// in\n    tag_71:\n      mload(0x40)\n      dup1\n      swap2\n      sub\n      swap1\n      revert\n    tag_70:\n        /* \"contracts/Auction.sol\":2451:2471  AuctionStatus.Active */\n      0x01\n        /* \"contracts/Auction.sol\":2435:2448  auctionStatus */\n      0x07\n      0x00\n        /* \"contracts/Auction.sol\":2435:2471  auctionStatus = AuctionStatus.Active */\n      0x0100\n      exp\n      dup2\n      sload\n      dup2\n      0xff\n      mul\n      not\n      and\n      swap1\n      dup4\n      0x03\n      dup2\n      gt\n      iszero\n      tag_73\n      jumpi\n      tag_74\n      tag_64\n      jump\t// in\n    tag_74:\n    tag_73:\n      mul\n      or\n      swap1\n      sstore\n      pop\n        /* \"contracts/Auction.sol\":2488:2503  block.timestamp */\n      timestamp\n        /* \"contracts/Auction.sol\":2476:2485  startTime */\n      0x01\n        /* \"contracts/Auction.sol\":2476:2503  startTime = block.timestamp */\n      dup2\n      swap1\n      sstore\n      pop\n        /* \"contracts/Auction.sol\":2518:2526  endTime_ */\n      dup1\n        /* \"contracts/Auction.sol\":2508:2515  endTime */\n      0x02\n        /* \"contracts/Auction.sol\":2508:2526  endTime = endTime_ */\n      dup2\n      swap1\n      sstore\n      pop\n        /* \"contracts/Auction.sol\":2189:2531  function startAuction(uint endTime_) external onlyOwner {\r... */\n      pop\n      jump\t// out\n        /* \"contracts/Auction.sol\":98:117  uint public endTime */\n    tag_21:\n      sload(0x02)\n      dup2\n      jump\t// out\n        /* \"contracts/Auction.sol\":1572:2181  function withdrawBid() external {\r... */\n    tag_26:\n        /* \"contracts/Auction.sol\":1743:1765  AuctionStatus.Complete */\n      0x03\n        /* \"contracts/Auction.sol\":1726:1765  auctionStatus == AuctionStatus.Complete */\n      dup1\n      dup2\n      gt\n      iszero\n      tag_76\n      jumpi\n      tag_77\n      tag_64\n      jump\t// in\n    tag_77:\n    tag_76:\n        /* \"contracts/Auction.sol\":1726:1739  auctionStatus */\n      0x07\n      0x00\n      swap1\n      sload\n      swap1\n      0x0100\n      exp\n      swap1\n      div\n      0xff\n      and\n        /* \"contracts/Auction.sol\":1726:1765  auctionStatus == AuctionStatus.Complete */\n      0x03\n      dup2\n      gt\n      iszero\n      tag_78\n      jumpi\n      tag_79\n      tag_64\n      jump\t// in\n    tag_79:\n    tag_78:\n      eq\n        /* \"contracts/Auction.sol\":1726:1796  auctionStatus == AuctionStatus.Complete && msg.sender == highestBidder */\n      dup1\n      iszero\n      tag_80\n      jumpi\n      pop\n        /* \"contracts/Auction.sol\":1783:1796  highestBidder */\n      0x04\n      0x00\n      swap1\n      sload\n      swap1\n      0x0100\n      exp\n      swap1\n      div\n      0xffffffffffffffffffffffffffffffffffffffff\n      and\n        /* \"contracts/Auction.sol\":1769:1796  msg.sender == highestBidder */\n      0xffffffffffffffffffffffffffffffffffffffff\n      and\n        /* \"contracts/Auction.sol\":1769:1779  msg.sender */\n      caller\n        /* \"contracts/Auction.sol\":1769:1796  msg.sender == highestBidder */\n      0xffffffffffffffffffffffffffffffffffffffff\n      and\n      eq\n        /* \"contracts/Auction.sol\":1726:1796  auctionStatus == AuctionStatus.Complete && msg.sender == highestBidder */\n    tag_80:\n        /* \"contracts/Auction.sol\":1722:2177  if (auctionStatus == AuctionStatus.Complete && msg.sender == highestBidder) {\r... */\n      iszero\n      tag_81\n      jumpi\n        /* \"contracts/Auction.sol\":1804:1826  uint highestBindingBid */\n      0x00\n        /* \"contracts/Auction.sol\":1857:1858  1 */\n      0x01\n        /* \"contracts/Auction.sol\":1829:1833  bids */\n      0x06\n        /* \"contracts/Auction.sol\":1829:1854  bids[secondHighestBidder] */\n      0x00\n        /* \"contracts/Auction.sol\":1834:1853  secondHighestBidder */\n      0x05\n      0x00\n      swap1\n      sload\n      swap1\n      0x0100\n      exp\n      swap1\n      div\n      0xffffffffffffffffffffffffffffffffffffffff\n      and\n        /* \"contracts/Auction.sol\":1829:1854  bids[secondHighestBidder] */\n      0xffffffffffffffffffffffffffffffffffffffff\n      and\n      0xffffffffffffffffffffffffffffffffffffffff\n      and\n      dup2\n      mstore\n      0x20\n      add\n      swap1\n      dup2\n      mstore\n      0x20\n      add\n      0x00\n      keccak256\n      sload\n        /* \"contracts/Auction.sol\":1829:1858  bids[secondHighestBidder] + 1 */\n      tag_82\n      swap2\n      swap1\n      tag_83\n      jump\t// in\n    tag_82:\n        /* \"contracts/Auction.sol\":1804:1858  uint highestBindingBid = bids[secondHighestBidder] + 1 */\n      swap1\n      pop\n        /* \"contracts/Auction.sol\":1864:1883  uint refundedAmount */\n      0x00\n        /* \"contracts/Auction.sol\":1905:1922  highestBindingBid */\n      dup2\n        /* \"contracts/Auction.sol\":1886:1890  bids */\n      0x06\n        /* \"contracts/Auction.sol\":1886:1902  bids[msg.sender] */\n      0x00\n        /* \"contracts/Auction.sol\":1891:1901  msg.sender */\n      caller\n        /* \"contracts/Auction.sol\":1886:1902  bids[msg.sender] */\n      0xffffffffffffffffffffffffffffffffffffffff\n      and\n      0xffffffffffffffffffffffffffffffffffffffff\n      and\n      dup2\n      mstore\n      0x20\n      add\n      swap1\n      dup2\n      mstore\n      0x20\n      add\n      0x00\n      keccak256\n      sload\n        /* \"contracts/Auction.sol\":1886:1922  bids[msg.sender] - highestBindingBid */\n      tag_84\n      swap2\n      swap1\n      tag_85\n      jump\t// in\n    tag_84:\n        /* \"contracts/Auction.sol\":1864:1922  uint refundedAmount = bids[msg.sender] - highestBindingBid */\n      swap1\n      pop\n        /* \"contracts/Auction.sol\":2009:2019  msg.sender */\n      caller\n        /* \"contracts/Auction.sol\":2001:2029  payable(msg.sender).transfer */\n      0xffffffffffffffffffffffffffffffffffffffff\n      and\n        /* \"contracts/Auction.sol\":2001:2045  payable(msg.sender).transfer(refundedAmount) */\n      0x08fc\n        /* \"contracts/Auction.sol\":2030:2044  refundedAmount */\n      dup3\n        /* \"contracts/Auction.sol\":2001:2045  payable(msg.sender).transfer(refundedAmount) */\n      swap1\n      dup2\n      iszero\n      mul\n      swap1\n      mload(0x40)\n      0x00\n      mload(0x40)\n      dup1\n      dup4\n      sub\n      dup2\n      dup6\n      dup9\n      dup9\n      call\n      swap4\n      pop\n      pop\n      pop\n      pop\n      iszero\n      dup1\n      iszero\n      tag_87\n      jumpi\n      returndatasize\n      0x00\n      dup1\n      returndatacopy\n      revert(0x00, returndatasize)\n    tag_87:\n      pop\n        /* \"contracts/Auction.sol\":1798:2051  {\r... */\n      pop\n      pop\n        /* \"contracts/Auction.sol\":1722:2177  if (auctionStatus == AuctionStatus.Complete && msg.sender == highestBidder) {\r... */\n      jump(tag_88)\n    tag_81:\n        /* \"contracts/Auction.sol\":2133:2143  msg.sender */\n      caller\n        /* \"contracts/Auction.sol\":2125:2153  payable(msg.sender).transfer */\n      0xffffffffffffffffffffffffffffffffffffffff\n      and\n        /* \"contracts/Auction.sol\":2125:2171  payable(msg.sender).transfer(bids[msg.sender]) */\n      0x08fc\n        /* \"contracts/Auction.sol\":2154:2158  bids */\n      0x06\n        /* \"contracts/Auction.sol\":2154:2170  bids[msg.sender] */\n      0x00\n        /* \"contracts/Auction.sol\":2159:2169  msg.sender */\n      caller\n        /* \"contracts/Auction.sol\":2154:2170  bids[msg.sender] */\n      0xffffffffffffffffffffffffffffffffffffffff\n      and\n      0xffffffffffffffffffffffffffffffffffffffff\n      and\n      dup2\n      mstore\n      0x20\n      add\n      swap1\n      dup2\n      mstore\n      0x20\n      add\n      0x00\n      keccak256\n      sload\n        /* \"contracts/Auction.sol\":2125:2171  payable(msg.sender).transfer(bids[msg.sender]) */\n      swap1\n      dup2\n      iszero\n      mul\n      swap1\n      mload(0x40)\n      0x00\n      mload(0x40)\n      dup1\n      dup4\n      sub\n      dup2\n      dup6\n      dup9\n      dup9\n      call\n      swap4\n      pop\n      pop\n      pop\n      pop\n      iszero\n      dup1\n      iszero\n      tag_90\n      jumpi\n      returndatasize\n      0x00\n      dup1\n      returndatacopy\n      revert(0x00, returndatasize)\n    tag_90:\n      pop\n        /* \"contracts/Auction.sol\":1722:2177  if (auctionStatus == AuctionStatus.Complete && msg.sender == highestBidder) {\r... */\n    tag_88:\n        /* \"contracts/Auction.sol\":1572:2181  function withdrawBid() external {\r... */\n      jump\t// out\n        /* \"contracts/Auction.sol\":73:94  uint public startTime */\n    tag_29:\n      sload(0x01)\n      dup2\n      jump\t// out\n        /* \"contracts/Auction.sol\":49:69  address public owner */\n    tag_33:\n      0x00\n      dup1\n      sload\n      swap1\n      0x0100\n      exp\n      swap1\n      div\n      0xffffffffffffffffffffffffffffffffffffffff\n      and\n      dup2\n      jump\t// out\n        /* \"contracts/Auction.sol\":2943:3150  function cancelAuction() external onlyOwner {\r... */\n    tag_38:\n        /* \"contracts/Auction.sol\":515:525  msg.sender */\n      caller\n        /* \"contracts/Auction.sol\":506:525  owner == msg.sender */\n      0xffffffffffffffffffffffffffffffffffffffff\n      and\n        /* \"contracts/Auction.sol\":506:511  owner */\n      0x00\n      dup1\n      sload\n      swap1\n      0x0100\n      exp\n      swap1\n      div\n      0xffffffffffffffffffffffffffffffffffffffff\n      and\n        /* \"contracts/Auction.sol\":506:525  owner == msg.sender */\n      0xffffffffffffffffffffffffffffffffffffffff\n      and\n      eq\n        /* \"contracts/Auction.sol\":498:562  require(owner == msg.sender, \"Ownable: caller is not the owner\") */\n      tag_92\n      jumpi\n      mload(0x40)\n      0x08c379a000000000000000000000000000000000000000000000000000000000\n      dup2\n      mstore\n      0x04\n      add\n      tag_93\n      swap1\n      tag_60\n      jump\t// in\n    tag_93:\n      mload(0x40)\n      dup1\n      swap2\n      sub\n      swap1\n      revert\n    tag_92:\n        /* \"contracts/Auction.sol\":3023:3043  AuctionStatus.Active */\n      0x01\n        /* \"contracts/Auction.sol\":3006:3043  auctionStatus == AuctionStatus.Active */\n      0x03\n      dup2\n      gt\n      iszero\n      tag_95\n      jumpi\n      tag_96\n      tag_64\n      jump\t// in\n    tag_96:\n    tag_95:\n        /* \"contracts/Auction.sol\":3006:3019  auctionStatus */\n      0x07\n      0x00\n      swap1\n      sload\n      swap1\n      0x0100\n      exp\n      swap1\n      div\n      0xff\n      and\n        /* \"contracts/Auction.sol\":3006:3043  auctionStatus == AuctionStatus.Active */\n      0x03\n      dup2\n      gt\n      iszero\n      tag_97\n      jumpi\n      tag_98\n      tag_64\n      jump\t// in\n    tag_98:\n    tag_97:\n      eq\n        /* \"contracts/Auction.sol\":2998:3069  require(auctionStatus == AuctionStatus.Active, \"Auction is not active\") */\n      tag_99\n      jumpi\n      mload(0x40)\n      0x08c379a000000000000000000000000000000000000000000000000000000000\n      dup2\n      mstore\n      0x04\n      add\n      tag_100\n      swap1\n      tag_101\n      jump\t// in\n    tag_100:\n      mload(0x40)\n      dup1\n      swap2\n      sub\n      swap1\n      revert\n    tag_99:\n        /* \"contracts/Auction.sol\":3122:3145  AuctionStatus.Cancelled */\n      0x02\n        /* \"contracts/Auction.sol\":3106:3119  auctionStatus */\n      0x07\n      0x00\n        /* \"contracts/Auction.sol\":3106:3145  auctionStatus = AuctionStatus.Cancelled */\n      0x0100\n      exp\n      dup2\n      sload\n      dup2\n      0xff\n      mul\n      not\n      and\n      swap1\n      dup4\n      0x03\n      dup2\n      gt\n      iszero\n      tag_102\n      jumpi\n      tag_103\n      tag_64\n      jump\t// in\n    tag_103:\n    tag_102:\n      mul\n      or\n      swap1\n      sstore\n      pop\n        /* \"contracts/Auction.sol\":2943:3150  function cancelAuction() external onlyOwner {\r... */\n      jump\t// out\n        /* \"contracts/Auction.sol\":344:378  AuctionStatus public auctionStatus */\n    tag_41:\n      0x07\n      0x00\n      swap1\n      sload\n      swap1\n      0x0100\n      exp\n      swap1\n      div\n      0xff\n      and\n      dup2\n      jump\t// out\n        /* \"contracts/Auction.sol\":584:751  function auctionWinner() external view returns (address) {\r... */\n    tag_46:\n        /* \"contracts/Auction.sol\":632:639  address */\n      0x00\n        /* \"contracts/Auction.sol\":671:693  AuctionStatus.Complete */\n      0x03\n        /* \"contracts/Auction.sol\":654:693  auctionStatus == AuctionStatus.Complete */\n      dup1\n      dup2\n      gt\n      iszero\n      tag_105\n      jumpi\n      tag_106\n      tag_64\n      jump\t// in\n    tag_106:\n    tag_105:\n        /* \"contracts/Auction.sol\":654:667  auctionStatus */\n      0x07\n      0x00\n      swap1\n      sload\n      swap1\n      0x0100\n      exp\n      swap1\n      div\n      0xff\n      and\n        /* \"contracts/Auction.sol\":654:693  auctionStatus == AuctionStatus.Complete */\n      0x03\n      dup2\n      gt\n      iszero\n      tag_107\n      jumpi\n      tag_108\n      tag_64\n      jump\t// in\n    tag_108:\n    tag_107:\n      eq\n        /* \"contracts/Auction.sol\":646:721  require(auctionStatus == AuctionStatus.Complete, \"Auction is not complete\") */\n      tag_109\n      jumpi\n      mload(0x40)\n      0x08c379a000000000000000000000000000000000000000000000000000000000\n      dup2\n      mstore\n      0x04\n      add\n      tag_110\n      swap1\n      tag_111\n      jump\t// in\n    tag_110:\n      mload(0x40)\n      dup1\n      swap2\n      sub\n      swap1\n      revert\n    tag_109:\n        /* \"contracts/Auction.sol\":733:746  highestBidder */\n      0x04\n      0x00\n      swap1\n      sload\n      swap1\n      0x0100\n      exp\n      swap1\n      div\n      0xffffffffffffffffffffffffffffffffffffffff\n      and\n        /* \"contracts/Auction.sol\":726:746  return highestBidder */\n      swap1\n      pop\n        /* \"contracts/Auction.sol\":584:751  function auctionWinner() external view returns (address) {\r... */\n      swap1\n      jump\t// out\n        /* \"contracts/Auction.sol\":121:155  uint public minPrice = 0.001 ether */\n    tag_50:\n      sload(0x03)\n      dup2\n      jump\t// out\n        /* \"contracts/Auction.sol\":759:1564  function placeBid() external payable {\r... */\n    tag_53:\n        /* \"contracts/Auction.sol\":888:897  msg.value */\n      callvalue\n        /* \"contracts/Auction.sol\":869:873  bids */\n      0x06\n        /* \"contracts/Auction.sol\":869:885  bids[msg.sender] */\n      0x00\n        /* \"contracts/Auction.sol\":874:884  msg.sender */\n      caller\n        /* \"contracts/Auction.sol\":869:885  bids[msg.sender] */\n      0xffffffffffffffffffffffffffffffffffffffff\n      and\n      0xffffffffffffffffffffffffffffffffffffffff\n      and\n      dup2\n      mstore\n      0x20\n      add\n      swap1\n      dup2\n      mstore\n      0x20\n      add\n      0x00\n      keccak256\n        /* \"contracts/Auction.sol\":869:897  bids[msg.sender] = msg.value */\n      dup2\n      swap1\n      sstore\n      pop\n        /* \"contracts/Auction.sol\":1012:1013  0 */\n      0x00\n        /* \"contracts/Auction.sol\":987:1014  highestBidder == address(0) */\n      0xffffffffffffffffffffffffffffffffffffffff\n      and\n        /* \"contracts/Auction.sol\":987:1000  highestBidder */\n      0x04\n      0x00\n      swap1\n      sload\n      swap1\n      0x0100\n      exp\n      swap1\n      div\n      0xffffffffffffffffffffffffffffffffffffffff\n      and\n        /* \"contracts/Auction.sol\":987:1014  highestBidder == address(0) */\n      0xffffffffffffffffffffffffffffffffffffffff\n      and\n      eq\n        /* \"contracts/Auction.sol\":983:1560  if (highestBidder == address(0)) {\r... */\n      iszero\n      tag_113\n      jumpi\n        /* \"contracts/Auction.sol\":1038:1048  msg.sender */\n      caller\n        /* \"contracts/Auction.sol\":1022:1035  highestBidder */\n      0x04\n      0x00\n        /* \"contracts/Auction.sol\":1022:1048  highestBidder = msg.sender */\n      0x0100\n      exp\n      dup2\n      sload\n      dup2\n      0xffffffffffffffffffffffffffffffffffffffff\n      mul\n      not\n      and\n      swap1\n      dup4\n      0xffffffffffffffffffffffffffffffffffffffff\n      and\n      mul\n      or\n      swap1\n      sstore\n      pop\n        /* \"contracts/Auction.sol\":1076:1086  msg.sender */\n      caller\n        /* \"contracts/Auction.sol\":1054:1073  secondHighestBidder */\n      0x05\n      0x00\n        /* \"contracts/Auction.sol\":1054:1086  secondHighestBidder = msg.sender */\n      0x0100\n      exp\n      dup2\n      sload\n      dup2\n      0xffffffffffffffffffffffffffffffffffffffff\n      mul\n      not\n      and\n      swap1\n      dup4\n      0xffffffffffffffffffffffffffffffffffffffff\n      and\n      mul\n      or\n      swap1\n      sstore\n      pop\n        /* \"contracts/Auction.sol\":983:1560  if (highestBidder == address(0)) {\r... */\n      jump(tag_114)\n    tag_113:\n        /* \"contracts/Auction.sol\":1247:1251  bids */\n      0x06\n        /* \"contracts/Auction.sol\":1247:1266  bids[highestBidder] */\n      0x00\n        /* \"contracts/Auction.sol\":1252:1265  highestBidder */\n      0x04\n      0x00\n      swap1\n      sload\n      swap1\n      0x0100\n      exp\n      swap1\n      div\n      0xffffffffffffffffffffffffffffffffffffffff\n      and\n        /* \"contracts/Auction.sol\":1247:1266  bids[highestBidder] */\n      0xffffffffffffffffffffffffffffffffffffffff\n      and\n      0xffffffffffffffffffffffffffffffffffffffff\n      and\n      dup2\n      mstore\n      0x20\n      add\n      swap1\n      dup2\n      mstore\n      0x20\n      add\n      0x00\n      keccak256\n      sload\n        /* \"contracts/Auction.sol\":1235:1244  msg.value */\n      callvalue\n        /* \"contracts/Auction.sol\":1235:1266  msg.value > bids[highestBidder] */\n      gt\n        /* \"contracts/Auction.sol\":1231:1560  if (msg.value > bids[highestBidder]) {\r... */\n      iszero\n      tag_115\n      jumpi\n        /* \"contracts/Auction.sol\":1296:1309  highestBidder */\n      0x04\n      0x00\n      swap1\n      sload\n      swap1\n      0x0100\n      exp\n      swap1\n      div\n      0xffffffffffffffffffffffffffffffffffffffff\n      and\n        /* \"contracts/Auction.sol\":1274:1293  secondHighestBidder */\n      0x05\n      0x00\n        /* \"contracts/Auction.sol\":1274:1309  secondHighestBidder = highestBidder */\n      0x0100\n      exp\n      dup2\n      sload\n      dup2\n      0xffffffffffffffffffffffffffffffffffffffff\n      mul\n      not\n      and\n      swap1\n      dup4\n      0xffffffffffffffffffffffffffffffffffffffff\n      and\n      mul\n      or\n      swap1\n      sstore\n      pop\n        /* \"contracts/Auction.sol\":1331:1341  msg.sender */\n      caller\n        /* \"contracts/Auction.sol\":1315:1328  highestBidder */\n      0x04\n      0x00\n        /* \"contracts/Auction.sol\":1315:1341  highestBidder = msg.sender */\n      0x0100\n      exp\n      dup2\n      sload\n      dup2\n      0xffffffffffffffffffffffffffffffffffffffff\n      mul\n      not\n      and\n      swap1\n      dup4\n      0xffffffffffffffffffffffffffffffffffffffff\n      and\n      mul\n      or\n      swap1\n      sstore\n      pop\n        /* \"contracts/Auction.sol\":1231:1560  if (msg.value > bids[highestBidder]) {\r... */\n      jump(tag_116)\n    tag_115:\n        /* \"contracts/Auction.sol\":1489:1493  bids */\n      0x06\n        /* \"contracts/Auction.sol\":1489:1514  bids[secondHighestBidder] */\n      0x00\n        /* \"contracts/Auction.sol\":1494:1513  secondHighestBidder */\n      0x05\n      0x00\n      swap1\n      sload\n      swap1\n      0x0100\n      exp\n      swap1\n      div\n      0xffffffffffffffffffffffffffffffffffffffff\n      and\n        /* \"contracts/Auction.sol\":1489:1514  bids[secondHighestBidder] */\n      0xffffffffffffffffffffffffffffffffffffffff\n      and\n      0xffffffffffffffffffffffffffffffffffffffff\n      and\n      dup2\n      mstore\n      0x20\n      add\n      swap1\n      dup2\n      mstore\n      0x20\n      add\n      0x00\n      keccak256\n      sload\n        /* \"contracts/Auction.sol\":1477:1486  msg.value */\n      callvalue\n        /* \"contracts/Auction.sol\":1477:1514  msg.value > bids[secondHighestBidder] */\n      gt\n        /* \"contracts/Auction.sol\":1473:1560  if (msg.value > bids[secondHighestBidder]) {\r... */\n      iszero\n      tag_117\n      jumpi\n        /* \"contracts/Auction.sol\":1544:1554  msg.sender */\n      caller\n        /* \"contracts/Auction.sol\":1522:1541  secondHighestBidder */\n      0x05\n      0x00\n        /* \"contracts/Auction.sol\":1522:1554  secondHighestBidder = msg.sender */\n      0x0100\n      exp\n      dup2\n      sload\n      dup2\n      0xffffffffffffffffffffffffffffffffffffffff\n      mul\n      not\n      and\n      swap1\n      dup4\n      0xffffffffffffffffffffffffffffffffffffffff\n      and\n      mul\n      or\n      swap1\n      sstore\n      pop\n        /* \"contracts/Auction.sol\":1473:1560  if (msg.value > bids[secondHighestBidder]) {\r... */\n    tag_117:\n        /* \"contracts/Auction.sol\":1231:1560  if (msg.value > bids[highestBidder]) {\r... */\n    tag_116:\n        /* \"contracts/Auction.sol\":983:1560  if (highestBidder == address(0)) {\r... */\n    tag_114:\n        /* \"contracts/Auction.sol\":759:1564  function placeBid() external payable {\r... */\n      jump\t// out\n        /* \"contracts/Auction.sol\":2539:2938  function endAuction() external onlyOwner {\r... */\n    tag_56:\n        /* \"contracts/Auction.sol\":515:525  msg.sender */\n      caller\n        /* \"contracts/Auction.sol\":506:525  owner == msg.sender */\n      0xffffffffffffffffffffffffffffffffffffffff\n      and\n        /* \"contracts/Auction.sol\":506:511  owner */\n      0x00\n      dup1\n      sload\n      swap1\n      0x0100\n      exp\n      swap1\n      div\n      0xffffffffffffffffffffffffffffffffffffffff\n      and\n        /* \"contracts/Auction.sol\":506:525  owner == msg.sender */\n      0xffffffffffffffffffffffffffffffffffffffff\n      and\n      eq\n        /* \"contracts/Auction.sol\":498:562  require(owner == msg.sender, \"Ownable: caller is not the owner\") */\n      tag_119\n      jumpi\n      mload(0x40)\n      0x08c379a000000000000000000000000000000000000000000000000000000000\n      dup2\n      mstore\n      0x04\n      add\n      tag_120\n      swap1\n      tag_60\n      jump\t// in\n    tag_120:\n      mload(0x40)\n      dup1\n      swap2\n      sub\n      swap1\n      revert\n    tag_119:\n        /* \"contracts/Auction.sol\":2610:2630  AuctionStatus.Active */\n      0x01\n        /* \"contracts/Auction.sol\":2593:2630  auctionStatus == AuctionStatus.Active */\n      0x03\n      dup2\n      gt\n      iszero\n      tag_122\n      jumpi\n      tag_123\n      tag_64\n      jump\t// in\n    tag_123:\n    tag_122:\n        /* \"contracts/Auction.sol\":2593:2606  auctionStatus */\n      0x07\n      0x00\n      swap1\n      sload\n      swap1\n      0x0100\n      exp\n      swap1\n      div\n      0xff\n      and\n        /* \"contracts/Auction.sol\":2593:2630  auctionStatus == AuctionStatus.Active */\n      0x03\n      dup2\n      gt\n      iszero\n      tag_124\n      jumpi\n      tag_125\n      tag_64\n      jump\t// in\n    tag_125:\n    tag_124:\n      eq\n        /* \"contracts/Auction.sol\":2585:2656  require(auctionStatus == AuctionStatus.Active, \"Auction is not active\") */\n      tag_126\n      jumpi\n      mload(0x40)\n      0x08c379a000000000000000000000000000000000000000000000000000000000\n      dup2\n      mstore\n      0x04\n      add\n      tag_127\n      swap1\n      tag_101\n      jump\t// in\n    tag_127:\n      mload(0x40)\n      dup1\n      swap2\n      sub\n      swap1\n      revert\n    tag_126:\n        /* \"contracts/Auction.sol\":2688:2695  endTime */\n      sload(0x02)\n        /* \"contracts/Auction.sol\":2669:2684  block.timestamp */\n      timestamp\n        /* \"contracts/Auction.sol\":2669:2695  block.timestamp >= endTime */\n      lt\n      iszero\n        /* \"contracts/Auction.sol\":2661:2724  require(block.timestamp >= endTime, \"End time not reached yet\") */\n      tag_128\n      jumpi\n      mload(0x40)\n      0x08c379a000000000000000000000000000000000000000000000000000000000\n      dup2\n      mstore\n      0x04\n      add\n      tag_129\n      swap1\n      tag_130\n      jump\t// in\n    tag_129:\n      mload(0x40)\n      dup1\n      swap2\n      sub\n      swap1\n      revert\n    tag_128:\n        /* \"contracts/Auction.sol\":2778:2800  uint highestBindingBid */\n      0x00\n        /* \"contracts/Auction.sol\":2831:2832  1 */\n      0x01\n        /* \"contracts/Auction.sol\":2803:2807  bids */\n      0x06\n        /* \"contracts/Auction.sol\":2803:2828  bids[secondHighestBidder] */\n      0x00\n        /* \"contracts/Auction.sol\":2808:2827  secondHighestBidder */\n      0x05\n      0x00\n      swap1\n      sload\n      swap1\n      0x0100\n      exp\n      swap1\n      div\n      0xffffffffffffffffffffffffffffffffffffffff\n      and\n        /* \"contracts/Auction.sol\":2803:2828  bids[secondHighestBidder] */\n      0xffffffffffffffffffffffffffffffffffffffff\n      and\n      0xffffffffffffffffffffffffffffffffffffffff\n      and\n      dup2\n      mstore\n      0x20\n      add\n      swap1\n      dup2\n      mstore\n      0x20\n      add\n      0x00\n      keccak256\n      sload\n        /* \"contracts/Auction.sol\":2803:2832  bids[secondHighestBidder] + 1 */\n      tag_131\n      swap2\n      swap1\n      tag_83\n      jump\t// in\n    tag_131:\n        /* \"contracts/Auction.sol\":2778:2832  uint highestBindingBid = bids[secondHighestBidder] + 1 */\n      swap1\n      pop\n        /* \"contracts/Auction.sol\":2851:2861  msg.sender */\n      caller\n        /* \"contracts/Auction.sol\":2843:2871  payable(msg.sender).transfer */\n      0xffffffffffffffffffffffffffffffffffffffff\n      and\n        /* \"contracts/Auction.sol\":2843:2890  payable(msg.sender).transfer(highestBindingBid) */\n      0x08fc\n        /* \"contracts/Auction.sol\":2872:2889  highestBindingBid */\n      dup3\n        /* \"contracts/Auction.sol\":2843:2890  payable(msg.sender).transfer(highestBindingBid) */\n      swap1\n      dup2\n      iszero\n      mul\n      swap1\n      mload(0x40)\n      0x00\n      mload(0x40)\n      dup1\n      dup4\n      sub\n      dup2\n      dup6\n      dup9\n      dup9\n      call\n      swap4\n      pop\n      pop\n      pop\n      pop\n      iszero\n      dup1\n      iszero\n      tag_133\n      jumpi\n      returndatasize\n      0x00\n      dup1\n      returndatacopy\n      revert(0x00, returndatasize)\n    tag_133:\n      pop\n        /* \"contracts/Auction.sol\":2911:2933  AuctionStatus.Complete */\n      0x03\n        /* \"contracts/Auction.sol\":2895:2908  auctionStatus */\n      0x07\n      0x00\n        /* \"contracts/Auction.sol\":2895:2933  auctionStatus = AuctionStatus.Complete */\n      0x0100\n      exp\n      dup2\n      sload\n      dup2\n      0xff\n      mul\n      not\n      and\n      swap1\n      dup4\n      0x03\n      dup2\n      gt\n      iszero\n      tag_134\n      jumpi\n      tag_135\n      tag_64\n      jump\t// in\n    tag_135:\n    tag_134:\n      mul\n      or\n      swap1\n      sstore\n      pop\n        /* \"contracts/Auction.sol\":2580:2938  {\r... */\n      pop\n        /* \"contracts/Auction.sol\":2539:2938  function endAuction() external onlyOwner {\r... */\n      jump\t// out\n        /* \"#utility.yul\":7:146   */\n    tag_137:\n        /* \"#utility.yul\":53:58   */\n      0x00\n        /* \"#utility.yul\":91:97   */\n      dup2\n        /* \"#utility.yul\":78:98   */\n      calldataload\n        /* \"#utility.yul\":69:98   */\n      swap1\n      pop\n        /* \"#utility.yul\":107:140   */\n      tag_139\n        /* \"#utility.yul\":134:139   */\n      dup2\n        /* \"#utility.yul\":107:140   */\n      tag_140\n      jump\t// in\n    tag_139:\n        /* \"#utility.yul\":7:146   */\n      swap3\n      swap2\n      pop\n      pop\n      jump\t// out\n        /* \"#utility.yul\":152:481   */\n    tag_17:\n        /* \"#utility.yul\":211:217   */\n      0x00\n        /* \"#utility.yul\":260:262   */\n      0x20\n        /* \"#utility.yul\":248:257   */\n      dup3\n        /* \"#utility.yul\":239:246   */\n      dup5\n        /* \"#utility.yul\":235:258   */\n      sub\n        /* \"#utility.yul\":231:263   */\n      slt\n        /* \"#utility.yul\":228:347   */\n      iszero\n      tag_142\n      jumpi\n        /* \"#utility.yul\":266:345   */\n      tag_143\n      tag_144\n      jump\t// in\n    tag_143:\n        /* \"#utility.yul\":228:347   */\n    tag_142:\n        /* \"#utility.yul\":386:387   */\n      0x00\n        /* \"#utility.yul\":411:464   */\n      tag_145\n        /* \"#utility.yul\":456:463   */\n      dup5\n        /* \"#utility.yul\":447:453   */\n      dup3\n        /* \"#utility.yul\":436:445   */\n      dup6\n        /* \"#utility.yul\":432:454   */\n      add\n        /* \"#utility.yul\":411:464   */\n      tag_137\n      jump\t// in\n    tag_145:\n        /* \"#utility.yul\":401:464   */\n      swap2\n      pop\n        /* \"#utility.yul\":357:474   */\n      pop\n        /* \"#utility.yul\":152:481   */\n      swap3\n      swap2\n      pop\n      pop\n      jump\t// out\n        /* \"#utility.yul\":487:605   */\n    tag_146:\n        /* \"#utility.yul\":574:598   */\n      tag_148\n        /* \"#utility.yul\":592:597   */\n      dup2\n        /* \"#utility.yul\":574:598   */\n      tag_149\n      jump\t// in\n    tag_148:\n        /* \"#utility.yul\":569:572   */\n      dup3\n        /* \"#utility.yul\":562:599   */\n      mstore\n        /* \"#utility.yul\":487:605   */\n      pop\n      pop\n      jump\t// out\n        /* \"#utility.yul\":611:770   */\n    tag_150:\n        /* \"#utility.yul\":712:763   */\n      tag_152\n        /* \"#utility.yul\":757:762   */\n      dup2\n        /* \"#utility.yul\":712:763   */\n      tag_153\n      jump\t// in\n    tag_152:\n        /* \"#utility.yul\":707:710   */\n      dup3\n        /* \"#utility.yul\":700:764   */\n      mstore\n        /* \"#utility.yul\":611:770   */\n      pop\n      pop\n      jump\t// out\n        /* \"#utility.yul\":776:1142   */\n    tag_154:\n        /* \"#utility.yul\":918:921   */\n      0x00\n        /* \"#utility.yul\":939:1006   */\n      tag_156\n        /* \"#utility.yul\":1003:1005   */\n      0x19\n        /* \"#utility.yul\":998:1001   */\n      dup4\n        /* \"#utility.yul\":939:1006   */\n      tag_157\n      jump\t// in\n    tag_156:\n        /* \"#utility.yul\":932:1006   */\n      swap2\n      pop\n        /* \"#utility.yul\":1015:1108   */\n      tag_158\n        /* \"#utility.yul\":1104:1107   */\n      dup3\n        /* \"#utility.yul\":1015:1108   */\n      tag_159\n      jump\t// in\n    tag_158:\n        /* \"#utility.yul\":1133:1135   */\n      0x20\n        /* \"#utility.yul\":1128:1131   */\n      dup3\n        /* \"#utility.yul\":1124:1136   */\n      add\n        /* \"#utility.yul\":1117:1136   */\n      swap1\n      pop\n        /* \"#utility.yul\":776:1142   */\n      swap2\n      swap1\n      pop\n      jump\t// out\n        /* \"#utility.yul\":1148:1514   */\n    tag_160:\n        /* \"#utility.yul\":1290:1293   */\n      0x00\n        /* \"#utility.yul\":1311:1378   */\n      tag_162\n        /* \"#utility.yul\":1375:1377   */\n      0x17\n        /* \"#utility.yul\":1370:1373   */\n      dup4\n        /* \"#utility.yul\":1311:1378   */\n      tag_157\n      jump\t// in\n    tag_162:\n        /* \"#utility.yul\":1304:1378   */\n      swap2\n      pop\n        /* \"#utility.yul\":1387:1480   */\n      tag_163\n        /* \"#utility.yul\":1476:1479   */\n      dup3\n        /* \"#utility.yul\":1387:1480   */\n      tag_164\n      jump\t// in\n    tag_163:\n        /* \"#utility.yul\":1505:1507   */\n      0x20\n        /* \"#utility.yul\":1500:1503   */\n      dup3\n        /* \"#utility.yul\":1496:1508   */\n      add\n        /* \"#utility.yul\":1489:1508   */\n      swap1\n      pop\n        /* \"#utility.yul\":1148:1514   */\n      swap2\n      swap1\n      pop\n      jump\t// out\n        /* \"#utility.yul\":1520:1886   */\n    tag_165:\n        /* \"#utility.yul\":1662:1665   */\n      0x00\n        /* \"#utility.yul\":1683:1750   */\n      tag_167\n        /* \"#utility.yul\":1747:1749   */\n      0x17\n        /* \"#utility.yul\":1742:1745   */\n      dup4\n        /* \"#utility.yul\":1683:1750   */\n      tag_157\n      jump\t// in\n    tag_167:\n        /* \"#utility.yul\":1676:1750   */\n      swap2\n      pop\n        /* \"#utility.yul\":1759:1852   */\n      tag_168\n        /* \"#utility.yul\":1848:1851   */\n      dup3\n        /* \"#utility.yul\":1759:1852   */\n      tag_169\n      jump\t// in\n    tag_168:\n        /* \"#utility.yul\":1877:1879   */\n      0x20\n        /* \"#utility.yul\":1872:1875   */\n      dup3\n        /* \"#utility.yul\":1868:1880   */\n      add\n        /* \"#utility.yul\":1861:1880   */\n      swap1\n      pop\n        /* \"#utility.yul\":1520:1886   */\n      swap2\n      swap1\n      pop\n      jump\t// out\n        /* \"#utility.yul\":1892:2258   */\n    tag_170:\n        /* \"#utility.yul\":2034:2037   */\n      0x00\n        /* \"#utility.yul\":2055:2122   */\n      tag_172\n        /* \"#utility.yul\":2119:2121   */\n      0x15\n        /* \"#utility.yul\":2114:2117   */\n      dup4\n        /* \"#utility.yul\":2055:2122   */\n      tag_157\n      jump\t// in\n    tag_172:\n        /* \"#utility.yul\":2048:2122   */\n      swap2\n      pop\n        /* \"#utility.yul\":2131:2224   */\n      tag_173\n        /* \"#utility.yul\":2220:2223   */\n      dup3\n        /* \"#utility.yul\":2131:2224   */\n      tag_174\n      jump\t// in\n    tag_173:\n        /* \"#utility.yul\":2249:2251   */\n      0x20\n        /* \"#utility.yul\":2244:2247   */\n      dup3\n        /* \"#utility.yul\":2240:2252   */\n      add\n        /* \"#utility.yul\":2233:2252   */\n      swap1\n      pop\n        /* \"#utility.yul\":1892:2258   */\n      swap2\n      swap1\n      pop\n      jump\t// out\n        /* \"#utility.yul\":2264:2630   */\n    tag_175:\n        /* \"#utility.yul\":2406:2409   */\n      0x00\n        /* \"#utility.yul\":2427:2494   */\n      tag_177\n        /* \"#utility.yul\":2491:2493   */\n      0x20\n        /* \"#utility.yul\":2486:2489   */\n      dup4\n        /* \"#utility.yul\":2427:2494   */\n      tag_157\n      jump\t// in\n    tag_177:\n        /* \"#utility.yul\":2420:2494   */\n      swap2\n      pop\n        /* \"#utility.yul\":2503:2596   */\n      tag_178\n        /* \"#utility.yul\":2592:2595   */\n      dup3\n        /* \"#utility.yul\":2503:2596   */\n      tag_179\n      jump\t// in\n    tag_178:\n        /* \"#utility.yul\":2621:2623   */\n      0x20\n        /* \"#utility.yul\":2616:2619   */\n      dup3\n        /* \"#utility.yul\":2612:2624   */\n      add\n        /* \"#utility.yul\":2605:2624   */\n      swap1\n      pop\n        /* \"#utility.yul\":2264:2630   */\n      swap2\n      swap1\n      pop\n      jump\t// out\n        /* \"#utility.yul\":2636:3002   */\n    tag_180:\n        /* \"#utility.yul\":2778:2781   */\n      0x00\n        /* \"#utility.yul\":2799:2866   */\n      tag_182\n        /* \"#utility.yul\":2863:2865   */\n      0x18\n        /* \"#utility.yul\":2858:2861   */\n      dup4\n        /* \"#utility.yul\":2799:2866   */\n      tag_157\n      jump\t// in\n    tag_182:\n        /* \"#utility.yul\":2792:2866   */\n      swap2\n      pop\n        /* \"#utility.yul\":2875:2968   */\n      tag_183\n        /* \"#utility.yul\":2964:2967   */\n      dup3\n        /* \"#utility.yul\":2875:2968   */\n      tag_184\n      jump\t// in\n    tag_183:\n        /* \"#utility.yul\":2993:2995   */\n      0x20\n        /* \"#utility.yul\":2988:2991   */\n      dup3\n        /* \"#utility.yul\":2984:2996   */\n      add\n        /* \"#utility.yul\":2977:2996   */\n      swap1\n      pop\n        /* \"#utility.yul\":2636:3002   */\n      swap2\n      swap1\n      pop\n      jump\t// out\n        /* \"#utility.yul\":3008:3126   */\n    tag_185:\n        /* \"#utility.yul\":3095:3119   */\n      tag_187\n        /* \"#utility.yul\":3113:3118   */\n      dup2\n        /* \"#utility.yul\":3095:3119   */\n      tag_188\n      jump\t// in\n    tag_187:\n        /* \"#utility.yul\":3090:3093   */\n      dup3\n        /* \"#utility.yul\":3083:3120   */\n      mstore\n        /* \"#utility.yul\":3008:3126   */\n      pop\n      pop\n      jump\t// out\n        /* \"#utility.yul\":3132:3354   */\n    tag_35:\n        /* \"#utility.yul\":3225:3229   */\n      0x00\n        /* \"#utility.yul\":3263:3265   */\n      0x20\n        /* \"#utility.yul\":3252:3261   */\n      dup3\n        /* \"#utility.yul\":3248:3266   */\n      add\n        /* \"#utility.yul\":3240:3266   */\n      swap1\n      pop\n        /* \"#utility.yul\":3276:3347   */\n      tag_190\n        /* \"#utility.yul\":3344:3345   */\n      0x00\n        /* \"#utility.yul\":3333:3342   */\n      dup4\n        /* \"#utility.yul\":3329:3346   */\n      add\n        /* \"#utility.yul\":3320:3326   */\n      dup5\n        /* \"#utility.yul\":3276:3347   */\n      tag_146\n      jump\t// in\n    tag_190:\n        /* \"#utility.yul\":3132:3354   */\n      swap3\n      swap2\n      pop\n      pop\n      jump\t// out\n        /* \"#utility.yul\":3360:3610   */\n    tag_43:\n        /* \"#utility.yul\":3467:3471   */\n      0x00\n        /* \"#utility.yul\":3505:3507   */\n      0x20\n        /* \"#utility.yul\":3494:3503   */\n      dup3\n        /* \"#utility.yul\":3490:3508   */\n      add\n        /* \"#utility.yul\":3482:3508   */\n      swap1\n      pop\n        /* \"#utility.yul\":3518:3603   */\n      tag_192\n        /* \"#utility.yul\":3600:3601   */\n      0x00\n        /* \"#utility.yul\":3589:3598   */\n      dup4\n        /* \"#utility.yul\":3585:3602   */\n      add\n        /* \"#utility.yul\":3576:3582   */\n      dup5\n        /* \"#utility.yul\":3518:3603   */\n      tag_150\n      jump\t// in\n    tag_192:\n        /* \"#utility.yul\":3360:3610   */\n      swap3\n      swap2\n      pop\n      pop\n      jump\t// out\n        /* \"#utility.yul\":3616:4035   */\n    tag_69:\n        /* \"#utility.yul\":3782:3786   */\n      0x00\n        /* \"#utility.yul\":3820:3822   */\n      0x20\n        /* \"#utility.yul\":3809:3818   */\n      dup3\n        /* \"#utility.yul\":3805:3823   */\n      add\n        /* \"#utility.yul\":3797:3823   */\n      swap1\n      pop\n        /* \"#utility.yul\":3869:3878   */\n      dup2\n        /* \"#utility.yul\":3863:3867   */\n      dup2\n        /* \"#utility.yul\":3859:3879   */\n      sub\n        /* \"#utility.yul\":3855:3856   */\n      0x00\n        /* \"#utility.yul\":3844:3853   */\n      dup4\n        /* \"#utility.yul\":3840:3857   */\n      add\n        /* \"#utility.yul\":3833:3880   */\n      mstore\n        /* \"#utility.yul\":3897:4028   */\n      tag_194\n        /* \"#utility.yul\":4023:4027   */\n      dup2\n        /* \"#utility.yul\":3897:4028   */\n      tag_154\n      jump\t// in\n    tag_194:\n        /* \"#utility.yul\":3889:4028   */\n      swap1\n      pop\n        /* \"#utility.yul\":3616:4035   */\n      swap2\n      swap1\n      pop\n      jump\t// out\n        /* \"#utility.yul\":4041:4460   */\n    tag_72:\n        /* \"#utility.yul\":4207:4211   */\n      0x00\n        /* \"#utility.yul\":4245:4247   */\n      0x20\n        /* \"#utility.yul\":4234:4243   */\n      dup3\n        /* \"#utility.yul\":4230:4248   */\n      add\n        /* \"#utility.yul\":4222:4248   */\n      swap1\n      pop\n        /* \"#utility.yul\":4294:4303   */\n      dup2\n        /* \"#utility.yul\":4288:4292   */\n      dup2\n        /* \"#utility.yul\":4284:4304   */\n      sub\n        /* \"#utility.yul\":4280:4281   */\n      0x00\n        /* \"#utility.yul\":4269:4278   */\n      dup4\n        /* \"#utility.yul\":4265:4282   */\n      add\n        /* \"#utility.yul\":4258:4305   */\n      mstore\n        /* \"#utility.yul\":4322:4453   */\n      tag_196\n        /* \"#utility.yul\":4448:4452   */\n      dup2\n        /* \"#utility.yul\":4322:4453   */\n      tag_160\n      jump\t// in\n    tag_196:\n        /* \"#utility.yul\":4314:4453   */\n      swap1\n      pop\n        /* \"#utility.yul\":4041:4460   */\n      swap2\n      swap1\n      pop\n      jump\t// out\n        /* \"#utility.yul\":4466:4885   */\n    tag_111:\n        /* \"#utility.yul\":4632:4636   */\n      0x00\n        /* \"#utility.yul\":4670:4672   */\n      0x20\n        /* \"#utility.yul\":4659:4668   */\n      dup3\n        /* \"#utility.yul\":4655:4673   */\n      add\n        /* \"#utility.yul\":4647:4673   */\n      swap1\n      pop\n        /* \"#utility.yul\":4719:4728   */\n      dup2\n        /* \"#utility.yul\":4713:4717   */\n      dup2\n        /* \"#utility.yul\":4709:4729   */\n      sub\n        /* \"#utility.yul\":4705:4706   */\n      0x00\n        /* \"#utility.yul\":4694:4703   */\n      dup4\n        /* \"#utility.yul\":4690:4707   */\n      add\n        /* \"#utility.yul\":4683:4730   */\n      mstore\n        /* \"#utility.yul\":4747:4878   */\n      tag_198\n        /* \"#utility.yul\":4873:4877   */\n      dup2\n        /* \"#utility.yul\":4747:4878   */\n      tag_165\n      jump\t// in\n    tag_198:\n        /* \"#utility.yul\":4739:4878   */\n      swap1\n      pop\n        /* \"#utility.yul\":4466:4885   */\n      swap2\n      swap1\n      pop\n      jump\t// out\n        /* \"#utility.yul\":4891:5310   */\n    tag_101:\n        /* \"#utility.yul\":5057:5061   */\n      0x00\n        /* \"#utility.yul\":5095:5097   */\n      0x20\n        /* \"#utility.yul\":5084:5093   */\n      dup3\n        /* \"#utility.yul\":5080:5098   */\n      add\n        /* \"#utility.yul\":5072:5098   */\n      swap1\n      pop\n        /* \"#utility.yul\":5144:5153   */\n      dup2\n        /* \"#utility.yul\":5138:5142   */\n      dup2\n        /* \"#utility.yul\":5134:5154   */\n      sub\n        /* \"#utility.yul\":5130:5131   */\n      0x00\n        /* \"#utility.yul\":5119:5128   */\n      dup4\n        /* \"#utility.yul\":5115:5132   */\n      add\n        /* \"#utility.yul\":5108:5155   */\n      mstore\n        /* \"#utility.yul\":5172:5303   */\n      tag_200\n        /* \"#utility.yul\":5298:5302   */\n      dup2\n        /* \"#utility.yul\":5172:5303   */\n      tag_170\n      jump\t// in\n    tag_200:\n        /* \"#utility.yul\":5164:5303   */\n      swap1\n      pop\n        /* \"#utility.yul\":4891:5310   */\n      swap2\n      swap1\n      pop\n      jump\t// out\n        /* \"#utility.yul\":5316:5735   */\n    tag_60:\n        /* \"#utility.yul\":5482:5486   */\n      0x00\n        /* \"#utility.yul\":5520:5522   */\n      0x20\n        /* \"#utility.yul\":5509:5518   */\n      dup3\n        /* \"#utility.yul\":5505:5523   */\n      add\n        /* \"#utility.yul\":5497:5523   */\n      swap1\n      pop\n        /* \"#utility.yul\":5569:5578   */\n      dup2\n        /* \"#utility.yul\":5563:5567   */\n      dup2\n        /* \"#utility.yul\":5559:5579   */\n      sub\n        /* \"#utility.yul\":5555:5556   */\n      0x00\n        /* \"#utility.yul\":5544:5553   */\n      dup4\n        /* \"#utility.yul\":5540:5557   */\n      add\n        /* \"#utility.yul\":5533:5580   */\n      mstore\n        /* \"#utility.yul\":5597:5728   */\n      tag_202\n        /* \"#utility.yul\":5723:5727   */\n      dup2\n        /* \"#utility.yul\":5597:5728   */\n      tag_175\n      jump\t// in\n    tag_202:\n        /* \"#utility.yul\":5589:5728   */\n      swap1\n      pop\n        /* \"#utility.yul\":5316:5735   */\n      swap2\n      swap1\n      pop\n      jump\t// out\n        /* \"#utility.yul\":5741:6160   */\n    tag_130:\n        /* \"#utility.yul\":5907:5911   */\n      0x00\n        /* \"#utility.yul\":5945:5947   */\n      0x20\n        /* \"#utility.yul\":5934:5943   */\n      dup3\n        /* \"#utility.yul\":5930:5948   */\n      add\n        /* \"#utility.yul\":5922:5948   */\n      swap1\n      pop\n        /* \"#utility.yul\":5994:6003   */\n      dup2\n        /* \"#utility.yul\":5988:5992   */\n      dup2\n        /* \"#utility.yul\":5984:6004   */\n      sub\n        /* \"#utility.yul\":5980:5981   */\n      0x00\n        /* \"#utility.yul\":5969:5978   */\n      dup4\n        /* \"#utility.yul\":5965:5982   */\n      add\n        /* \"#utility.yul\":5958:6005   */\n      mstore\n        /* \"#utility.yul\":6022:6153   */\n      tag_204\n        /* \"#utility.yul\":6148:6152   */\n      dup2\n        /* \"#utility.yul\":6022:6153   */\n      tag_180\n      jump\t// in\n    tag_204:\n        /* \"#utility.yul\":6014:6153   */\n      swap1\n      pop\n        /* \"#utility.yul\":5741:6160   */\n      swap2\n      swap1\n      pop\n      jump\t// out\n        /* \"#utility.yul\":6166:6388   */\n    tag_23:\n        /* \"#utility.yul\":6259:6263   */\n      0x00\n        /* \"#utility.yul\":6297:6299   */\n      0x20\n        /* \"#utility.yul\":6286:6295   */\n      dup3\n        /* \"#utility.yul\":6282:6300   */\n      add\n        /* \"#utility.yul\":6274:6300   */\n      swap1\n      pop\n        /* \"#utility.yul\":6310:6381   */\n      tag_206\n        /* \"#utility.yul\":6378:6379   */\n      0x00\n        /* \"#utility.yul\":6367:6376   */\n      dup4\n        /* \"#utility.yul\":6363:6380   */\n      add\n        /* \"#utility.yul\":6354:6360   */\n      dup5\n        /* \"#utility.yul\":6310:6381   */\n      tag_185\n      jump\t// in\n    tag_206:\n        /* \"#utility.yul\":6166:6388   */\n      swap3\n      swap2\n      pop\n      pop\n      jump\t// out\n        /* \"#utility.yul\":6475:6644   */\n    tag_157:\n        /* \"#utility.yul\":6559:6570   */\n      0x00\n        /* \"#utility.yul\":6593:6599   */\n      dup3\n        /* \"#utility.yul\":6588:6591   */\n      dup3\n        /* \"#utility.yul\":6581:6600   */\n      mstore\n        /* \"#utility.yul\":6633:6637   */\n      0x20\n        /* \"#utility.yul\":6628:6631   */\n      dup3\n        /* \"#utility.yul\":6624:6638   */\n      add\n        /* \"#utility.yul\":6609:6638   */\n      swap1\n      pop\n        /* \"#utility.yul\":6475:6644   */\n      swap3\n      swap2\n      pop\n      pop\n      jump\t// out\n        /* \"#utility.yul\":6650:6955   */\n    tag_83:\n        /* \"#utility.yul\":6690:6693   */\n      0x00\n        /* \"#utility.yul\":6709:6729   */\n      tag_211\n        /* \"#utility.yul\":6727:6728   */\n      dup3\n        /* \"#utility.yul\":6709:6729   */\n      tag_188\n      jump\t// in\n    tag_211:\n        /* \"#utility.yul\":6704:6729   */\n      swap2\n      pop\n        /* \"#utility.yul\":6743:6763   */\n      tag_212\n        /* \"#utility.yul\":6761:6762   */\n      dup4\n        /* \"#utility.yul\":6743:6763   */\n      tag_188\n      jump\t// in\n    tag_212:\n        /* \"#utility.yul\":6738:6763   */\n      swap3\n      pop\n        /* \"#utility.yul\":6897:6898   */\n      dup3\n        /* \"#utility.yul\":6829:6895   */\n      0xffffffffffffffffffffffffffffffffffffffffffffffffffffffffffffffff\n        /* \"#utility.yul\":6825:6899   */\n      sub\n        /* \"#utility.yul\":6822:6823   */\n      dup3\n        /* \"#utility.yul\":6819:6900   */\n      gt\n        /* \"#utility.yul\":6816:6923   */\n      iszero\n      tag_213\n      jumpi\n        /* \"#utility.yul\":6903:6921   */\n      tag_214\n      tag_215\n      jump\t// in\n    tag_214:\n        /* \"#utility.yul\":6816:6923   */\n    tag_213:\n        /* \"#utility.yul\":6947:6948   */\n      dup3\n        /* \"#utility.yul\":6944:6945   */\n      dup3\n        /* \"#utility.yul\":6940:6949   */\n      add\n        /* \"#utility.yul\":6933:6949   */\n      swap1\n      pop\n        /* \"#utility.yul\":6650:6955   */\n      swap3\n      swap2\n      pop\n      pop\n      jump\t// out\n        /* \"#utility.yul\":6961:7152   */\n    tag_85:\n        /* \"#utility.yul\":7001:7005   */\n      0x00\n        /* \"#utility.yul\":7021:7041   */\n      tag_217\n        /* \"#utility.yul\":7039:7040   */\n      dup3\n        /* \"#utility.yul\":7021:7041   */\n      tag_188\n      jump\t// in\n    tag_217:\n        /* \"#utility.yul\":7016:7041   */\n      swap2\n      pop\n        /* \"#utility.yul\":7055:7075   */\n      tag_218\n        /* \"#utility.yul\":7073:7074   */\n      dup4\n        /* \"#utility.yul\":7055:7075   */\n      tag_188\n      jump\t// in\n    tag_218:\n        /* \"#utility.yul\":7050:7075   */\n      swap3\n      pop\n        /* \"#utility.yul\":7094:7095   */\n      dup3\n        /* \"#utility.yul\":7091:7092   */\n      dup3\n        /* \"#utility.yul\":7088:7096   */\n      lt\n        /* \"#utility.yul\":7085:7119   */\n      iszero\n      tag_219\n      jumpi\n        /* \"#utility.yul\":7099:7117   */\n      tag_220\n      tag_215\n      jump\t// in\n    tag_220:\n        /* \"#utility.yul\":7085:7119   */\n    tag_219:\n        /* \"#utility.yul\":7144:7145   */\n      dup3\n        /* \"#utility.yul\":7141:7142   */\n      dup3\n        /* \"#utility.yul\":7137:7146   */\n      sub\n        /* \"#utility.yul\":7129:7146   */\n      swap1\n      pop\n        /* \"#utility.yul\":6961:7152   */\n      swap3\n      swap2\n      pop\n      pop\n      jump\t// out\n        /* \"#utility.yul\":7158:7254   */\n    tag_149:\n        /* \"#utility.yul\":7195:7202   */\n      0x00\n        /* \"#utility.yul\":7224:7248   */\n      tag_222\n        /* \"#utility.yul\":7242:7247   */\n      dup3\n        /* \"#utility.yul\":7224:7248   */\n      tag_223\n      jump\t// in\n    tag_222:\n        /* \"#utility.yul\":7213:7248   */\n      swap1\n      pop\n        /* \"#utility.yul\":7158:7254   */\n      swap2\n      swap1\n      pop\n      jump\t// out\n        /* \"#utility.yul\":7260:7403   */\n    tag_224:\n        /* \"#utility.yul\":7313:7320   */\n      0x00\n        /* \"#utility.yul\":7342:7347   */\n      dup2\n        /* \"#utility.yul\":7331:7347   */\n      swap1\n      pop\n        /* \"#utility.yul\":7348:7397   */\n      tag_226\n        /* \"#utility.yul\":7391:7396   */\n      dup3\n        /* \"#utility.yul\":7348:7397   */\n      tag_227\n      jump\t// in\n    tag_226:\n        /* \"#utility.yul\":7260:7403   */\n      swap2\n      swap1\n      pop\n      jump\t// out\n        /* \"#utility.yul\":7409:7535   */\n    tag_223:\n        /* \"#utility.yul\":7446:7453   */\n      0x00\n        /* \"#utility.yul\":7486:7528   */\n      0xffffffffffffffffffffffffffffffffffffffff\n        /* \"#utility.yul\":7479:7484   */\n      dup3\n        /* \"#utility.yul\":7475:7529   */\n      and\n        /* \"#utility.yul\":7464:7529   */\n      swap1\n      pop\n        /* \"#utility.yul\":7409:7535   */\n      swap2\n      swap1\n      pop\n      jump\t// out\n        /* \"#utility.yul\":7541:7618   */\n    tag_188:\n        /* \"#utility.yul\":7578:7585   */\n      0x00\n        /* \"#utility.yul\":7607:7612   */\n      dup2\n        /* \"#utility.yul\":7596:7612   */\n      swap1\n      pop\n        /* \"#utility.yul\":7541:7618   */\n      swap2\n      swap1\n      pop\n      jump\t// out\n        /* \"#utility.yul\":7624:7767   */\n    tag_153:\n        /* \"#utility.yul\":7688:7697   */\n      0x00\n        /* \"#utility.yul\":7721:7761   */\n      tag_231\n        /* \"#utility.yul\":7755:7760   */\n      dup3\n        /* \"#utility.yul\":7721:7761   */\n      tag_224\n      jump\t// in\n    tag_231:\n        /* \"#utility.yul\":7708:7761   */\n      swap1\n      pop\n        /* \"#utility.yul\":7624:7767   */\n      swap2\n      swap1\n      pop\n      jump\t// out\n        /* \"#utility.yul\":7773:7953   */\n    tag_215:\n        /* \"#utility.yul\":7821:7898   */\n      0x4e487b7100000000000000000000000000000000000000000000000000000000\n        /* \"#utility.yul\":7818:7819   */\n      0x00\n        /* \"#utility.yul\":7811:7899   */\n      mstore\n        /* \"#utility.yul\":7918:7922   */\n      0x11\n        /* \"#utility.yul\":7915:7916   */\n      0x04\n        /* \"#utility.yul\":7908:7923   */\n      mstore\n        /* \"#utility.yul\":7942:7946   */\n      0x24\n        /* \"#utility.yul\":7939:7940   */\n      0x00\n        /* \"#utility.yul\":7932:7947   */\n      revert\n        /* \"#utility.yul\":7959:8139   */\n    tag_64:\n        /* \"#utility.yul\":8007:8084   */\n      0x4e487b7100000000000000000000000000000000000000000000000000000000\n        /* \"#utility.yul\":8004:8005   */\n      0x00\n        /* \"#utility.yul\":7997:8085   */\n      mstore\n        /* \"#utility.yul\":8104:8108   */\n      0x21\n        /* \"#utility.yul\":8101:8102   */\n      0x04\n        /* \"#utility.yul\":8094:8109   */\n      mstore\n        /* \"#utility.yul\":8128:8132   */\n      0x24\n        /* \"#utility.yul\":8125:8126   */\n      0x00\n        /* \"#utility.yul\":8118:8133   */\n      revert\n        /* \"#utility.yul\":8268:8385   */\n    tag_144:\n        /* \"#utility.yul\":8377:8378   */\n      0x00\n        /* \"#utility.yul\":8374:8375   */\n      dup1\n        /* \"#utility.yul\":8367:8379   */\n      revert\n        /* \"#utility.yul\":8391:8566   */\n    tag_159:\n        /* \"#utility.yul\":8531:8558   */\n      0x41756374696f6e20697320616c72656164792061637469766500000000000000\n        /* \"#utility.yul\":8527:8528   */\n      0x00\n        /* \"#utility.yul\":8519:8525   */\n      dup3\n        /* \"#utility.yul\":8515:8529   */\n      add\n        /* \"#utility.yul\":8508:8559   */\n      mstore\n        /* \"#utility.yul\":8391:8566   */\n      pop\n      jump\t// out\n        /* \"#utility.yul\":8572:8745   */\n    tag_164:\n        /* \"#utility.yul\":8712:8737   */\n      0x456e642074696d6520697320696e207468652070617374000000000000000000\n        /* \"#utility.yul\":8708:8709   */\n      0x00\n        /* \"#utility.yul\":8700:8706   */\n      dup3\n        /* \"#utility.yul\":8696:8710   */\n      add\n        /* \"#utility.yul\":8689:8738   */\n      mstore\n        /* \"#utility.yul\":8572:8745   */\n      pop\n      jump\t// out\n        /* \"#utility.yul\":8751:8924   */\n    tag_169:\n        /* \"#utility.yul\":8891:8916   */\n      0x41756374696f6e206973206e6f7420636f6d706c657465000000000000000000\n        /* \"#utility.yul\":8887:8888   */\n      0x00\n        /* \"#utility.yul\":8879:8885   */\n      dup3\n        /* \"#utility.yul\":8875:8889   */\n      add\n        /* \"#utility.yul\":8868:8917   */\n      mstore\n        /* \"#utility.yul\":8751:8924   */\n      pop\n      jump\t// out\n        /* \"#utility.yul\":8930:9101   */\n    tag_174:\n        /* \"#utility.yul\":9070:9093   */\n      0x41756374696f6e206973206e6f74206163746976650000000000000000000000\n        /* \"#utility.yul\":9066:9067   */\n      0x00\n        /* \"#utility.yul\":9058:9064   */\n      dup3\n        /* \"#utility.yul\":9054:9068   */\n      add\n        /* \"#utility.yul\":9047:9094   */\n      mstore\n        /* \"#utility.yul\":8930:9101   */\n      pop\n      jump\t// out\n        /* \"#utility.yul\":9107:9289   */\n    tag_179:\n        /* \"#utility.yul\":9247:9281   */\n      0x4f776e61626c653a2063616c6c6572206973206e6f7420746865206f776e6572\n        /* \"#utility.yul\":9243:9244   */\n      0x00\n        /* \"#utility.yul\":9235:9241   */\n      dup3\n        /* \"#utility.yul\":9231:9245   */\n      add\n        /* \"#utility.yul\":9224:9282   */\n      mstore\n        /* \"#utility.yul\":9107:9289   */\n      pop\n      jump\t// out\n        /* \"#utility.yul\":9295:9469   */\n    tag_184:\n        /* \"#utility.yul\":9435:9461   */\n      0x456e642074696d65206e6f742072656163686564207965740000000000000000\n        /* \"#utility.yul\":9431:9432   */\n      0x00\n        /* \"#utility.yul\":9423:9429   */\n      dup3\n        /* \"#utility.yul\":9419:9433   */\n      add\n        /* \"#utility.yul\":9412:9462   */\n      mstore\n        /* \"#utility.yul\":9295:9469   */\n      pop\n      jump\t// out\n        /* \"#utility.yul\":9475:9596   */\n    tag_227:\n        /* \"#utility.yul\":9564:9565   */\n      0x04\n        /* \"#utility.yul\":9557:9562   */\n      dup2\n        /* \"#utility.yul\":9554:9566   */\n      lt\n        /* \"#utility.yul\":9544:9590   */\n      tag_244\n      jumpi\n        /* \"#utility.yul\":9570:9588   */\n      tag_245\n      tag_64\n      jump\t// in\n    tag_245:\n        /* \"#utility.yul\":9544:9590   */\n    tag_244:\n        /* \"#utility.yul\":9475:9596   */\n      pop\n      jump\t// out\n        /* \"#utility.yul\":9602:9724   */\n    tag_140:\n        /* \"#utility.yul\":9675:9699   */\n      tag_247\n        /* \"#utility.yul\":9693:9698   */\n      dup2\n        /* \"#utility.yul\":9675:9699   */\n      tag_188\n      jump\t// in\n    tag_247:\n        /* \"#utility.yul\":9668:9673   */\n      dup2\n        /* \"#utility.yul\":9665:9700   */\n      eq\n        /* \"#utility.yul\":9655:9718   */\n      tag_248\n      jumpi\n        /* \"#utility.yul\":9714:9715   */\n      0x00\n        /* \"#utility.yul\":9711:9712   */\n      dup1\n        /* \"#utility.yul\":9704:9716   */\n      revert\n        /* \"#utility.yul\":9655:9718   */\n    tag_248:\n        /* \"#utility.yul\":9602:9724   */\n      pop\n      jump\t// out\n\n    auxdata: 0xa264697066735822122086958728188bd77ed033784162a161a3fbddc3b2563bb5d5c5879e5b3b9ece5c64736f6c63430008070033\n}\n",
				"bytecode": {
					"linkReferences": {},
					"object": "608060405266038d7ea4c6800060035534801561001b57600080fd5b50336000806101000a81548173ffffffffffffffffffffffffffffffffffffffff021916908373ffffffffffffffffffffffffffffffffffffffff1602179055506000600760006101000a81548160ff021916908360038111156100825761008161008c565b5b02179055506100bb565b7f4e487b7100000000000000000000000000000000000000000000000000000000600052602160045260246000fd5b6111fd806100ca6000396000f3fe60806040526004361061009c5760003560e01c80638fa8b790116100645780638fa8b790146101625780639d6a0f2814610179578063b37a8be3146101a4578063e45be8eb146101cf578063ecfc7ecc146101fa578063fe67a54b146102045761009c565b8063065de74c146100a15780633197cbb6146100ca57806337271cc7146100f557806378e979251461010c5780638da5cb5b14610137575b600080fd5b3480156100ad57600080fd5b506100c860048036038101906100c39190610d0a565b61021b565b005b3480156100d657600080fd5b506100df61039d565b6040516100ec9190610f2c565b60405180910390f35b34801561010157600080fd5b5061010a6103a3565b005b34801561011857600080fd5b506101216105cf565b60405161012e9190610f2c565b60405180910390f35b34801561014357600080fd5b5061014c6105d5565b6040516101599190610e36565b60405180910390f35b34801561016e57600080fd5b506101776105f9565b005b34801561018557600080fd5b5061018e61072a565b60405161019b9190610e51565b60405180910390f35b3480156101b057600080fd5b506101b961073d565b6040516101c69190610e36565b60405180910390f35b3480156101db57600080fd5b506101e46107dc565b6040516101f19190610f2c565b60405180910390f35b6102026107e2565b005b34801561021057600080fd5b50610219610ac5565b005b3373ffffffffffffffffffffffffffffffffffffffff1660008054906101000a900473ffffffffffffffffffffffffffffffffffffffff1673ffffffffffffffffffffffffffffffffffffffff16146102a9576040517f08c379a00000000000000000000000000000000000000000000000000000000081526004016102a090610eec565b60405180910390fd5b600060038111156102bd576102bc611072565b5b600760009054906101000a900460ff1660038111156102df576102de611072565b5b1461031f576040517f08c379a000000000000000000000000000000000000000000000000000000000815260040161031690610e6c565b60405180910390fd5b428111610361576040517f08c379a000000000000000000000000000000000000000000000000000000000815260040161035890610e8c565b60405180910390fd5b6001600760006101000a81548160ff0219169083600381111561038757610386611072565b5b0217905550426001819055508060028190555050565b60025481565b6003808111156103b6576103b5611072565b5b600760009054906101000a900460ff1660038111156103d8576103d7611072565b5b1480156104325750600460009054906101000a900473ffffffffffffffffffffffffffffffffffffffff1673ffffffffffffffffffffffffffffffffffffffff163373ffffffffffffffffffffffffffffffffffffffff16145b15610546576000600160066000600560009054906101000a900473ffffffffffffffffffffffffffffffffffffffff1673ffffffffffffffffffffffffffffffffffffffff1673ffffffffffffffffffffffffffffffffffffffff168152602001908152602001600020546104a79190610f58565b9050600081600660003373ffffffffffffffffffffffffffffffffffffffff1673ffffffffffffffffffffffffffffffffffffffff168152602001908152602001600020546104f69190610fae565b90503373ffffffffffffffffffffffffffffffffffffffff166108fc829081150290604051600060405180830381858888f1935050505015801561053e573d6000803e3d6000fd5b5050506105cd565b3373ffffffffffffffffffffffffffffffffffffffff166108fc600660003373ffffffffffffffffffffffffffffffffffffffff1673ffffffffffffffffffffffffffffffffffffffff168152602001908152602001600020549081150290604051600060405180830381858888f193505050501580156105cb573d6000803e3d6000fd5b505b565b60015481565b60008054906101000a900473ffffffffffffffffffffffffffffffffffffffff1681565b3373ffffffffffffffffffffffffffffffffffffffff1660008054906101000a900473ffffffffffffffffffffffffffffffffffffffff1673ffffffffffffffffffffffffffffffffffffffff1614610687576040517f08c379a000000000000000000000000000000000000000000000000000000000815260040161067e90610eec565b60405180910390fd5b6001600381111561069b5761069a611072565b5b600760009054906101000a900460ff1660038111156106bd576106bc611072565b5b146106fd576040517f08c379a00000000000000000000000000000000000000000000000000000000081526004016106f490610ecc565b60405180910390fd5b6002600760006101000a81548160ff0219169083600381111561072357610722611072565b5b0217905550565b600760009054906101000a900460ff1681565b600060038081111561075257610751611072565b5b600760009054906101000a900460ff16600381111561077457610773611072565b5b146107b4576040517f08c379a00000000000000000000000000000000000000000000000000000000081526004016107ab90610eac565b60405180910390fd5b600460009054906101000a900473ffffffffffffffffffffffffffffffffffffffff16905090565b60035481565b34600660003373ffffffffffffffffffffffffffffffffffffffff1673ffffffffffffffffffffffffffffffffffffffff16815260200190815260200160002081905550600073ffffffffffffffffffffffffffffffffffffffff16600460009054906101000a900473ffffffffffffffffffffffffffffffffffffffff1673ffffffffffffffffffffffffffffffffffffffff1614156109045733600460006101000a81548173ffffffffffffffffffffffffffffffffffffffff021916908373ffffffffffffffffffffffffffffffffffffffff16021790555033600560006101000a81548173ffffffffffffffffffffffffffffffffffffffff021916908373ffffffffffffffffffffffffffffffffffffffff160217905550610ac3565b60066000600460009054906101000a900473ffffffffffffffffffffffffffffffffffffffff1673ffffffffffffffffffffffffffffffffffffffff1673ffffffffffffffffffffffffffffffffffffffff16815260200190815260200160002054341115610a1657600460009054906101000a900473ffffffffffffffffffffffffffffffffffffffff16600560006101000a81548173ffffffffffffffffffffffffffffffffffffffff021916908373ffffffffffffffffffffffffffffffffffffffff16021790555033600460006101000a81548173ffffffffffffffffffffffffffffffffffffffff021916908373ffffffffffffffffffffffffffffffffffffffff160217905550610ac2565b60066000600560009054906101000a900473ffffffffffffffffffffffffffffffffffffffff1673ffffffffffffffffffffffffffffffffffffffff1673ffffffffffffffffffffffffffffffffffffffff16815260200190815260200160002054341115610ac15733600560006101000a81548173ffffffffffffffffffffffffffffffffffffffff021916908373ffffffffffffffffffffffffffffffffffffffff1602179055505b5b5b565b3373ffffffffffffffffffffffffffffffffffffffff1660008054906101000a900473ffffffffffffffffffffffffffffffffffffffff1673ffffffffffffffffffffffffffffffffffffffff1614610b53576040517f08c379a0000000000000000000000000000000000000000000000000000000008152600401610b4a90610eec565b60405180910390fd5b60016003811115610b6757610b66611072565b5b600760009054906101000a900460ff166003811115610b8957610b88611072565b5b14610bc9576040517f08c379a0000000000000000000000000000000000000000000000000000000008152600401610bc090610ecc565b60405180910390fd5b600254421015610c0e576040517f08c379a0000000000000000000000000000000000000000000000000000000008152600401610c0590610f0c565b60405180910390fd5b6000600160066000600560009054906101000a900473ffffffffffffffffffffffffffffffffffffffff1673ffffffffffffffffffffffffffffffffffffffff1673ffffffffffffffffffffffffffffffffffffffff16815260200190815260200160002054610c7e9190610f58565b90503373ffffffffffffffffffffffffffffffffffffffff166108fc829081150290604051600060405180830381858888f19350505050158015610cc6573d6000803e3d6000fd5b506003600760006101000a81548160ff02191690836003811115610ced57610cec611072565b5b021790555050565b600081359050610d04816111b0565b92915050565b600060208284031215610d2057610d1f6110a1565b5b6000610d2e84828501610cf5565b91505092915050565b610d4081610fe2565b82525050565b610d4f81611031565b82525050565b6000610d62601983610f47565b9150610d6d826110a6565b602082019050919050565b6000610d85601783610f47565b9150610d90826110cf565b602082019050919050565b6000610da8601783610f47565b9150610db3826110f8565b602082019050919050565b6000610dcb601583610f47565b9150610dd682611121565b602082019050919050565b6000610dee602083610f47565b9150610df98261114a565b602082019050919050565b6000610e11601883610f47565b9150610e1c82611173565b602082019050919050565b610e3081611027565b82525050565b6000602082019050610e4b6000830184610d37565b92915050565b6000602082019050610e666000830184610d46565b92915050565b60006020820190508181036000830152610e8581610d55565b9050919050565b60006020820190508181036000830152610ea581610d78565b9050919050565b60006020820190508181036000830152610ec581610d9b565b9050919050565b60006020820190508181036000830152610ee581610dbe565b9050919050565b60006020820190508181036000830152610f0581610de1565b9050919050565b60006020820190508181036000830152610f2581610e04565b9050919050565b6000602082019050610f416000830184610e27565b92915050565b600082825260208201905092915050565b6000610f6382611027565b9150610f6e83611027565b9250827fffffffffffffffffffffffffffffffffffffffffffffffffffffffffffffffff03821115610fa357610fa2611043565b5b828201905092915050565b6000610fb982611027565b9150610fc483611027565b925082821015610fd757610fd6611043565b5b828203905092915050565b6000610fed82611007565b9050919050565b60008190506110028261119c565b919050565b600073ffffffffffffffffffffffffffffffffffffffff82169050919050565b6000819050919050565b600061103c82610ff4565b9050919050565b7f4e487b7100000000000000000000000000000000000000000000000000000000600052601160045260246000fd5b7f4e487b7100000000000000000000000000000000000000000000000000000000600052602160045260246000fd5b600080fd5b7f41756374696f6e20697320616c72656164792061637469766500000000000000600082015250565b7f456e642074696d6520697320696e207468652070617374000000000000000000600082015250565b7f41756374696f6e206973206e6f7420636f6d706c657465000000000000000000600082015250565b7f41756374696f6e206973206e6f74206163746976650000000000000000000000600082015250565b7f4f776e61626c653a2063616c6c6572206973206e6f7420746865206f776e6572600082015250565b7f456e642074696d65206e6f742072656163686564207965740000000000000000600082015250565b600481106111ad576111ac611072565b5b50565b6111b981611027565b81146111c457600080fd5b5056fea264697066735822122086958728188bd77ed033784162a161a3fbddc3b2563bb5d5c5879e5b3b9ece5c64736f6c63430008070033",
					"opcodes": "PUSH1 0x80 PUSH1 0x40 MSTORE PUSH7 0x38D7EA4C68000 PUSH1 0x3 SSTORE CALLVALUE DUP1 ISZERO PUSH2 0x1B JUMPI PUSH1 0x0 DUP1 REVERT JUMPDEST POP CALLER PUSH1 0x0 DUP1 PUSH2 0x100 EXP DUP2 SLOAD DUP2 PUSH20 0xFFFFFFFFFFFFFFFFFFFFFFFFFFFFFFFFFFFFFFFF MUL NOT AND SWAP1 DUP4 PUSH20 0xFFFFFFFFFFFFFFFFFFFFFFFFFFFFFFFFFFFFFFFF AND MUL OR SWAP1 SSTORE POP PUSH1 0x0 PUSH1 0x7 PUSH1 0x0 PUSH2 0x100 EXP DUP2 SLOAD DUP2 PUSH1 0xFF MUL NOT AND SWAP1 DUP4 PUSH1 0x3 DUP2 GT ISZERO PUSH2 0x82 JUMPI PUSH2 0x81 PUSH2 0x8C JUMP JUMPDEST JUMPDEST MUL OR SWAP1 SSTORE POP PUSH2 0xBB JUMP JUMPDEST PUSH32 0x4E487B7100000000000000000000000000000000000000000000000000000000 PUSH1 0x0 MSTORE PUSH1 0x21 PUSH1 0x4 MSTORE PUSH1 0x24 PUSH1 0x0 REVERT JUMPDEST PUSH2 0x11FD DUP1 PUSH2 0xCA PUSH1 0x0 CODECOPY PUSH1 0x0 RETURN INVALID PUSH1 0x80 PUSH1 0x40 MSTORE PUSH1 0x4 CALLDATASIZE LT PUSH2 0x9C JUMPI PUSH1 0x0 CALLDATALOAD PUSH1 0xE0 SHR DUP1 PUSH4 0x8FA8B790 GT PUSH2 0x64 JUMPI DUP1 PUSH4 0x8FA8B790 EQ PUSH2 0x162 JUMPI DUP1 PUSH4 0x9D6A0F28 EQ PUSH2 0x179 JUMPI DUP1 PUSH4 0xB37A8BE3 EQ PUSH2 0x1A4 JUMPI DUP1 PUSH4 0xE45BE8EB EQ PUSH2 0x1CF JUMPI DUP1 PUSH4 0xECFC7ECC EQ PUSH2 0x1FA JUMPI DUP1 PUSH4 0xFE67A54B EQ PUSH2 0x204 JUMPI PUSH2 0x9C JUMP JUMPDEST DUP1 PUSH4 0x65DE74C EQ PUSH2 0xA1 JUMPI DUP1 PUSH4 0x3197CBB6 EQ PUSH2 0xCA JUMPI DUP1 PUSH4 0x37271CC7 EQ PUSH2 0xF5 JUMPI DUP1 PUSH4 0x78E97925 EQ PUSH2 0x10C JUMPI DUP1 PUSH4 0x8DA5CB5B EQ PUSH2 0x137 JUMPI JUMPDEST PUSH1 0x0 DUP1 REVERT JUMPDEST CALLVALUE DUP1 ISZERO PUSH2 0xAD JUMPI PUSH1 0x0 DUP1 REVERT JUMPDEST POP PUSH2 0xC8 PUSH1 0x4 DUP1 CALLDATASIZE SUB DUP2 ADD SWAP1 PUSH2 0xC3 SWAP2 SWAP1 PUSH2 0xD0A JUMP JUMPDEST PUSH2 0x21B JUMP JUMPDEST STOP JUMPDEST CALLVALUE DUP1 ISZERO PUSH2 0xD6 JUMPI PUSH1 0x0 DUP1 REVERT JUMPDEST POP PUSH2 0xDF PUSH2 0x39D JUMP JUMPDEST PUSH1 0x40 MLOAD PUSH2 0xEC SWAP2 SWAP1 PUSH2 0xF2C JUMP JUMPDEST PUSH1 0x40 MLOAD DUP1 SWAP2 SUB SWAP1 RETURN JUMPDEST CALLVALUE DUP1 ISZERO PUSH2 0x101 JUMPI PUSH1 0x0 DUP1 REVERT JUMPDEST POP PUSH2 0x10A PUSH2 0x3A3 JUMP JUMPDEST STOP JUMPDEST CALLVALUE DUP1 ISZERO PUSH2 0x118 JUMPI PUSH1 0x0 DUP1 REVERT JUMPDEST POP PUSH2 0x121 PUSH2 0x5CF JUMP JUMPDEST PUSH1 0x40 MLOAD PUSH2 0x12E SWAP2 SWAP1 PUSH2 0xF2C JUMP JUMPDEST PUSH1 0x40 MLOAD DUP1 SWAP2 SUB SWAP1 RETURN JUMPDEST CALLVALUE DUP1 ISZERO PUSH2 0x143 JUMPI PUSH1 0x0 DUP1 REVERT JUMPDEST POP PUSH2 0x14C PUSH2 0x5D5 JUMP JUMPDEST PUSH1 0x40 MLOAD PUSH2 0x159 SWAP2 SWAP1 PUSH2 0xE36 JUMP JUMPDEST PUSH1 0x40 MLOAD DUP1 SWAP2 SUB SWAP1 RETURN JUMPDEST CALLVALUE DUP1 ISZERO PUSH2 0x16E JUMPI PUSH1 0x0 DUP1 REVERT JUMPDEST POP PUSH2 0x177 PUSH2 0x5F9 JUMP JUMPDEST STOP JUMPDEST CALLVALUE DUP1 ISZERO PUSH2 0x185 JUMPI PUSH1 0x0 DUP1 REVERT JUMPDEST POP PUSH2 0x18E PUSH2 0x72A JUMP JUMPDEST PUSH1 0x40 MLOAD PUSH2 0x19B SWAP2 SWAP1 PUSH2 0xE51 JUMP JUMPDEST PUSH1 0x40 MLOAD DUP1 SWAP2 SUB SWAP1 RETURN JUMPDEST CALLVALUE DUP1 ISZERO PUSH2 0x1B0 JUMPI PUSH1 0x0 DUP1 REVERT JUMPDEST POP PUSH2 0x1B9 PUSH2 0x73D JUMP JUMPDEST PUSH1 0x40 MLOAD PUSH2 0x1C6 SWAP2 SWAP1 PUSH2 0xE36 JUMP JUMPDEST PUSH1 0x40 MLOAD DUP1 SWAP2 SUB SWAP1 RETURN JUMPDEST CALLVALUE DUP1 ISZERO PUSH2 0x1DB JUMPI PUSH1 0x0 DUP1 REVERT JUMPDEST POP PUSH2 0x1E4 PUSH2 0x7DC JUMP JUMPDEST PUSH1 0x40 MLOAD PUSH2 0x1F1 SWAP2 SWAP1 PUSH2 0xF2C JUMP JUMPDEST PUSH1 0x40 MLOAD DUP1 SWAP2 SUB SWAP1 RETURN JUMPDEST PUSH2 0x202 PUSH2 0x7E2 JUMP JUMPDEST STOP JUMPDEST CALLVALUE DUP1 ISZERO PUSH2 0x210 JUMPI PUSH1 0x0 DUP1 REVERT JUMPDEST POP PUSH2 0x219 PUSH2 0xAC5 JUMP JUMPDEST STOP JUMPDEST CALLER PUSH20 0xFFFFFFFFFFFFFFFFFFFFFFFFFFFFFFFFFFFFFFFF AND PUSH1 0x0 DUP1 SLOAD SWAP1 PUSH2 0x100 EXP SWAP1 DIV PUSH20 0xFFFFFFFFFFFFFFFFFFFFFFFFFFFFFFFFFFFFFFFF AND PUSH20 0xFFFFFFFFFFFFFFFFFFFFFFFFFFFFFFFFFFFFFFFF AND EQ PUSH2 0x2A9 JUMPI PUSH1 0x40 MLOAD PUSH32 0x8C379A000000000000000000000000000000000000000000000000000000000 DUP2 MSTORE PUSH1 0x4 ADD PUSH2 0x2A0 SWAP1 PUSH2 0xEEC JUMP JUMPDEST PUSH1 0x40 MLOAD DUP1 SWAP2 SUB SWAP1 REVERT JUMPDEST PUSH1 0x0 PUSH1 0x3 DUP2 GT ISZERO PUSH2 0x2BD JUMPI PUSH2 0x2BC PUSH2 0x1072 JUMP JUMPDEST JUMPDEST PUSH1 0x7 PUSH1 0x0 SWAP1 SLOAD SWAP1 PUSH2 0x100 EXP SWAP1 DIV PUSH1 0xFF AND PUSH1 0x3 DUP2 GT ISZERO PUSH2 0x2DF JUMPI PUSH2 0x2DE PUSH2 0x1072 JUMP JUMPDEST JUMPDEST EQ PUSH2 0x31F JUMPI PUSH1 0x40 MLOAD PUSH32 0x8C379A000000000000000000000000000000000000000000000000000000000 DUP2 MSTORE PUSH1 0x4 ADD PUSH2 0x316 SWAP1 PUSH2 0xE6C JUMP JUMPDEST PUSH1 0x40 MLOAD DUP1 SWAP2 SUB SWAP1 REVERT JUMPDEST TIMESTAMP DUP2 GT PUSH2 0x361 JUMPI PUSH1 0x40 MLOAD PUSH32 0x8C379A000000000000000000000000000000000000000000000000000000000 DUP2 MSTORE PUSH1 0x4 ADD PUSH2 0x358 SWAP1 PUSH2 0xE8C JUMP JUMPDEST PUSH1 0x40 MLOAD DUP1 SWAP2 SUB SWAP1 REVERT JUMPDEST PUSH1 0x1 PUSH1 0x7 PUSH1 0x0 PUSH2 0x100 EXP DUP2 SLOAD DUP2 PUSH1 0xFF MUL NOT AND SWAP1 DUP4 PUSH1 0x3 DUP2 GT ISZERO PUSH2 0x387 JUMPI PUSH2 0x386 PUSH2 0x1072 JUMP JUMPDEST JUMPDEST MUL OR SWAP1 SSTORE POP TIMESTAMP PUSH1 0x1 DUP2 SWAP1 SSTORE POP DUP1 PUSH1 0x2 DUP2 SWAP1 SSTORE POP POP JUMP JUMPDEST PUSH1 0x2 SLOAD DUP2 JUMP JUMPDEST PUSH1 0x3 DUP1 DUP2 GT ISZERO PUSH2 0x3B6 JUMPI PUSH2 0x3B5 PUSH2 0x1072 JUMP JUMPDEST JUMPDEST PUSH1 0x7 PUSH1 0x0 SWAP1 SLOAD SWAP1 PUSH2 0x100 EXP SWAP1 DIV PUSH1 0xFF AND PUSH1 0x3 DUP2 GT ISZERO PUSH2 0x3D8 JUMPI PUSH2 0x3D7 PUSH2 0x1072 JUMP JUMPDEST JUMPDEST EQ DUP1 ISZERO PUSH2 0x432 JUMPI POP PUSH1 0x4 PUSH1 0x0 SWAP1 SLOAD SWAP1 PUSH2 0x100 EXP SWAP1 DIV PUSH20 0xFFFFFFFFFFFFFFFFFFFFFFFFFFFFFFFFFFFFFFFF AND PUSH20 0xFFFFFFFFFFFFFFFFFFFFFFFFFFFFFFFFFFFFFFFF AND CALLER PUSH20 0xFFFFFFFFFFFFFFFFFFFFFFFFFFFFFFFFFFFFFFFF AND EQ JUMPDEST ISZERO PUSH2 0x546 JUMPI PUSH1 0x0 PUSH1 0x1 PUSH1 0x6 PUSH1 0x0 PUSH1 0x5 PUSH1 0x0 SWAP1 SLOAD SWAP1 PUSH2 0x100 EXP SWAP1 DIV PUSH20 0xFFFFFFFFFFFFFFFFFFFFFFFFFFFFFFFFFFFFFFFF AND PUSH20 0xFFFFFFFFFFFFFFFFFFFFFFFFFFFFFFFFFFFFFFFF AND PUSH20 0xFFFFFFFFFFFFFFFFFFFFFFFFFFFFFFFFFFFFFFFF AND DUP2 MSTORE PUSH1 0x20 ADD SWAP1 DUP2 MSTORE PUSH1 0x20 ADD PUSH1 0x0 KECCAK256 SLOAD PUSH2 0x4A7 SWAP2 SWAP1 PUSH2 0xF58 JUMP JUMPDEST SWAP1 POP PUSH1 0x0 DUP2 PUSH1 0x6 PUSH1 0x0 CALLER PUSH20 0xFFFFFFFFFFFFFFFFFFFFFFFFFFFFFFFFFFFFFFFF AND PUSH20 0xFFFFFFFFFFFFFFFFFFFFFFFFFFFFFFFFFFFFFFFF AND DUP2 MSTORE PUSH1 0x20 ADD SWAP1 DUP2 MSTORE PUSH1 0x20 ADD PUSH1 0x0 KECCAK256 SLOAD PUSH2 0x4F6 SWAP2 SWAP1 PUSH2 0xFAE JUMP JUMPDEST SWAP1 POP CALLER PUSH20 0xFFFFFFFFFFFFFFFFFFFFFFFFFFFFFFFFFFFFFFFF AND PUSH2 0x8FC DUP3 SWAP1 DUP2 ISZERO MUL SWAP1 PUSH1 0x40 MLOAD PUSH1 0x0 PUSH1 0x40 MLOAD DUP1 DUP4 SUB DUP2 DUP6 DUP9 DUP9 CALL SWAP4 POP POP POP POP ISZERO DUP1 ISZERO PUSH2 0x53E JUMPI RETURNDATASIZE PUSH1 0x0 DUP1 RETURNDATACOPY RETURNDATASIZE PUSH1 0x0 REVERT JUMPDEST POP POP POP PUSH2 0x5CD JUMP JUMPDEST CALLER PUSH20 0xFFFFFFFFFFFFFFFFFFFFFFFFFFFFFFFFFFFFFFFF AND PUSH2 0x8FC PUSH1 0x6 PUSH1 0x0 CALLER PUSH20 0xFFFFFFFFFFFFFFFFFFFFFFFFFFFFFFFFFFFFFFFF AND PUSH20 0xFFFFFFFFFFFFFFFFFFFFFFFFFFFFFFFFFFFFFFFF AND DUP2 MSTORE PUSH1 0x20 ADD SWAP1 DUP2 MSTORE PUSH1 0x20 ADD PUSH1 0x0 KECCAK256 SLOAD SWAP1 DUP2 ISZERO MUL SWAP1 PUSH1 0x40 MLOAD PUSH1 0x0 PUSH1 0x40 MLOAD DUP1 DUP4 SUB DUP2 DUP6 DUP9 DUP9 CALL SWAP4 POP POP POP POP ISZERO DUP1 ISZERO PUSH2 0x5CB JUMPI RETURNDATASIZE PUSH1 0x0 DUP1 RETURNDATACOPY RETURNDATASIZE PUSH1 0x0 REVERT JUMPDEST POP JUMPDEST JUMP JUMPDEST PUSH1 0x1 SLOAD DUP2 JUMP JUMPDEST PUSH1 0x0 DUP1 SLOAD SWAP1 PUSH2 0x100 EXP SWAP1 DIV PUSH20 0xFFFFFFFFFFFFFFFFFFFFFFFFFFFFFFFFFFFFFFFF AND DUP2 JUMP JUMPDEST CALLER PUSH20 0xFFFFFFFFFFFFFFFFFFFFFFFFFFFFFFFFFFFFFFFF AND PUSH1 0x0 DUP1 SLOAD SWAP1 PUSH2 0x100 EXP SWAP1 DIV PUSH20 0xFFFFFFFFFFFFFFFFFFFFFFFFFFFFFFFFFFFFFFFF AND PUSH20 0xFFFFFFFFFFFFFFFFFFFFFFFFFFFFFFFFFFFFFFFF AND EQ PUSH2 0x687 JUMPI PUSH1 0x40 MLOAD PUSH32 0x8C379A000000000000000000000000000000000000000000000000000000000 DUP2 MSTORE PUSH1 0x4 ADD PUSH2 0x67E SWAP1 PUSH2 0xEEC JUMP JUMPDEST PUSH1 0x40 MLOAD DUP1 SWAP2 SUB SWAP1 REVERT JUMPDEST PUSH1 0x1 PUSH1 0x3 DUP2 GT ISZERO PUSH2 0x69B JUMPI PUSH2 0x69A PUSH2 0x1072 JUMP JUMPDEST JUMPDEST PUSH1 0x7 PUSH1 0x0 SWAP1 SLOAD SWAP1 PUSH2 0x100 EXP SWAP1 DIV PUSH1 0xFF AND PUSH1 0x3 DUP2 GT ISZERO PUSH2 0x6BD JUMPI PUSH2 0x6BC PUSH2 0x1072 JUMP JUMPDEST JUMPDEST EQ PUSH2 0x6FD JUMPI PUSH1 0x40 MLOAD PUSH32 0x8C379A000000000000000000000000000000000000000000000000000000000 DUP2 MSTORE PUSH1 0x4 ADD PUSH2 0x6F4 SWAP1 PUSH2 0xECC JUMP JUMPDEST PUSH1 0x40 MLOAD DUP1 SWAP2 SUB SWAP1 REVERT JUMPDEST PUSH1 0x2 PUSH1 0x7 PUSH1 0x0 PUSH2 0x100 EXP DUP2 SLOAD DUP2 PUSH1 0xFF MUL NOT AND SWAP1 DUP4 PUSH1 0x3 DUP2 GT ISZERO PUSH2 0x723 JUMPI PUSH2 0x722 PUSH2 0x1072 JUMP JUMPDEST JUMPDEST MUL OR SWAP1 SSTORE POP JUMP JUMPDEST PUSH1 0x7 PUSH1 0x0 SWAP1 SLOAD SWAP1 PUSH2 0x100 EXP SWAP1 DIV PUSH1 0xFF AND DUP2 JUMP JUMPDEST PUSH1 0x0 PUSH1 0x3 DUP1 DUP2 GT ISZERO PUSH2 0x752 JUMPI PUSH2 0x751 PUSH2 0x1072 JUMP JUMPDEST JUMPDEST PUSH1 0x7 PUSH1 0x0 SWAP1 SLOAD SWAP1 PUSH2 0x100 EXP SWAP1 DIV PUSH1 0xFF AND PUSH1 0x3 DUP2 GT ISZERO PUSH2 0x774 JUMPI PUSH2 0x773 PUSH2 0x1072 JUMP JUMPDEST JUMPDEST EQ PUSH2 0x7B4 JUMPI PUSH1 0x40 MLOAD PUSH32 0x8C379A000000000000000000000000000000000000000000000000000000000 DUP2 MSTORE PUSH1 0x4 ADD PUSH2 0x7AB SWAP1 PUSH2 0xEAC JUMP JUMPDEST PUSH1 0x40 MLOAD DUP1 SWAP2 SUB SWAP1 REVERT JUMPDEST PUSH1 0x4 PUSH1 0x0 SWAP1 SLOAD SWAP1 PUSH2 0x100 EXP SWAP1 DIV PUSH20 0xFFFFFFFFFFFFFFFFFFFFFFFFFFFFFFFFFFFFFFFF AND SWAP1 POP SWAP1 JUMP JUMPDEST PUSH1 0x3 SLOAD DUP2 JUMP JUMPDEST CALLVALUE PUSH1 0x6 PUSH1 0x0 CALLER PUSH20 0xFFFFFFFFFFFFFFFFFFFFFFFFFFFFFFFFFFFFFFFF AND PUSH20 0xFFFFFFFFFFFFFFFFFFFFFFFFFFFFFFFFFFFFFFFF AND DUP2 MSTORE PUSH1 0x20 ADD SWAP1 DUP2 MSTORE PUSH1 0x20 ADD PUSH1 0x0 KECCAK256 DUP2 SWAP1 SSTORE POP PUSH1 0x0 PUSH20 0xFFFFFFFFFFFFFFFFFFFFFFFFFFFFFFFFFFFFFFFF AND PUSH1 0x4 PUSH1 0x0 SWAP1 SLOAD SWAP1 PUSH2 0x100 EXP SWAP1 DIV PUSH20 0xFFFFFFFFFFFFFFFFFFFFFFFFFFFFFFFFFFFFFFFF AND PUSH20 0xFFFFFFFFFFFFFFFFFFFFFFFFFFFFFFFFFFFFFFFF AND EQ ISZERO PUSH2 0x904 JUMPI CALLER PUSH1 0x4 PUSH1 0x0 PUSH2 0x100 EXP DUP2 SLOAD DUP2 PUSH20 0xFFFFFFFFFFFFFFFFFFFFFFFFFFFFFFFFFFFFFFFF MUL NOT AND SWAP1 DUP4 PUSH20 0xFFFFFFFFFFFFFFFFFFFFFFFFFFFFFFFFFFFFFFFF AND MUL OR SWAP1 SSTORE POP CALLER PUSH1 0x5 PUSH1 0x0 PUSH2 0x100 EXP DUP2 SLOAD DUP2 PUSH20 0xFFFFFFFFFFFFFFFFFFFFFFFFFFFFFFFFFFFFFFFF MUL NOT AND SWAP1 DUP4 PUSH20 0xFFFFFFFFFFFFFFFFFFFFFFFFFFFFFFFFFFFFFFFF AND MUL OR SWAP1 SSTORE POP PUSH2 0xAC3 JUMP JUMPDEST PUSH1 0x6 PUSH1 0x0 PUSH1 0x4 PUSH1 0x0 SWAP1 SLOAD SWAP1 PUSH2 0x100 EXP SWAP1 DIV PUSH20 0xFFFFFFFFFFFFFFFFFFFFFFFFFFFFFFFFFFFFFFFF AND PUSH20 0xFFFFFFFFFFFFFFFFFFFFFFFFFFFFFFFFFFFFFFFF AND PUSH20 0xFFFFFFFFFFFFFFFFFFFFFFFFFFFFFFFFFFFFFFFF AND DUP2 MSTORE PUSH1 0x20 ADD SWAP1 DUP2 MSTORE PUSH1 0x20 ADD PUSH1 0x0 KECCAK256 SLOAD CALLVALUE GT ISZERO PUSH2 0xA16 JUMPI PUSH1 0x4 PUSH1 0x0 SWAP1 SLOAD SWAP1 PUSH2 0x100 EXP SWAP1 DIV PUSH20 0xFFFFFFFFFFFFFFFFFFFFFFFFFFFFFFFFFFFFFFFF AND PUSH1 0x5 PUSH1 0x0 PUSH2 0x100 EXP DUP2 SLOAD DUP2 PUSH20 0xFFFFFFFFFFFFFFFFFFFFFFFFFFFFFFFFFFFFFFFF MUL NOT AND SWAP1 DUP4 PUSH20 0xFFFFFFFFFFFFFFFFFFFFFFFFFFFFFFFFFFFFFFFF AND MUL OR SWAP1 SSTORE POP CALLER PUSH1 0x4 PUSH1 0x0 PUSH2 0x100 EXP DUP2 SLOAD DUP2 PUSH20 0xFFFFFFFFFFFFFFFFFFFFFFFFFFFFFFFFFFFFFFFF MUL NOT AND SWAP1 DUP4 PUSH20 0xFFFFFFFFFFFFFFFFFFFFFFFFFFFFFFFFFFFFFFFF AND MUL OR SWAP1 SSTORE POP PUSH2 0xAC2 JUMP JUMPDEST PUSH1 0x6 PUSH1 0x0 PUSH1 0x5 PUSH1 0x0 SWAP1 SLOAD SWAP1 PUSH2 0x100 EXP SWAP1 DIV PUSH20 0xFFFFFFFFFFFFFFFFFFFFFFFFFFFFFFFFFFFFFFFF AND PUSH20 0xFFFFFFFFFFFFFFFFFFFFFFFFFFFFFFFFFFFFFFFF AND PUSH20 0xFFFFFFFFFFFFFFFFFFFFFFFFFFFFFFFFFFFFFFFF AND DUP2 MSTORE PUSH1 0x20 ADD SWAP1 DUP2 MSTORE PUSH1 0x20 ADD PUSH1 0x0 KECCAK256 SLOAD CALLVALUE GT ISZERO PUSH2 0xAC1 JUMPI CALLER PUSH1 0x5 PUSH1 0x0 PUSH2 0x100 EXP DUP2 SLOAD DUP2 PUSH20 0xFFFFFFFFFFFFFFFFFFFFFFFFFFFFFFFFFFFFFFFF MUL NOT AND SWAP1 DUP4 PUSH20 0xFFFFFFFFFFFFFFFFFFFFFFFFFFFFFFFFFFFFFFFF AND MUL OR SWAP1 SSTORE POP JUMPDEST JUMPDEST JUMPDEST JUMP JUMPDEST CALLER PUSH20 0xFFFFFFFFFFFFFFFFFFFFFFFFFFFFFFFFFFFFFFFF AND PUSH1 0x0 DUP1 SLOAD SWAP1 PUSH2 0x100 EXP SWAP1 DIV PUSH20 0xFFFFFFFFFFFFFFFFFFFFFFFFFFFFFFFFFFFFFFFF AND PUSH20 0xFFFFFFFFFFFFFFFFFFFFFFFFFFFFFFFFFFFFFFFF AND EQ PUSH2 0xB53 JUMPI PUSH1 0x40 MLOAD PUSH32 0x8C379A000000000000000000000000000000000000000000000000000000000 DUP2 MSTORE PUSH1 0x4 ADD PUSH2 0xB4A SWAP1 PUSH2 0xEEC JUMP JUMPDEST PUSH1 0x40 MLOAD DUP1 SWAP2 SUB SWAP1 REVERT JUMPDEST PUSH1 0x1 PUSH1 0x3 DUP2 GT ISZERO PUSH2 0xB67 JUMPI PUSH2 0xB66 PUSH2 0x1072 JUMP JUMPDEST JUMPDEST PUSH1 0x7 PUSH1 0x0 SWAP1 SLOAD SWAP1 PUSH2 0x100 EXP SWAP1 DIV PUSH1 0xFF AND PUSH1 0x3 DUP2 GT ISZERO PUSH2 0xB89 JUMPI PUSH2 0xB88 PUSH2 0x1072 JUMP JUMPDEST JUMPDEST EQ PUSH2 0xBC9 JUMPI PUSH1 0x40 MLOAD PUSH32 0x8C379A000000000000000000000000000000000000000000000000000000000 DUP2 MSTORE PUSH1 0x4 ADD PUSH2 0xBC0 SWAP1 PUSH2 0xECC JUMP JUMPDEST PUSH1 0x40 MLOAD DUP1 SWAP2 SUB SWAP1 REVERT JUMPDEST PUSH1 0x2 SLOAD TIMESTAMP LT ISZERO PUSH2 0xC0E JUMPI PUSH1 0x40 MLOAD PUSH32 0x8C379A000000000000000000000000000000000000000000000000000000000 DUP2 MSTORE PUSH1 0x4 ADD PUSH2 0xC05 SWAP1 PUSH2 0xF0C JUMP JUMPDEST PUSH1 0x40 MLOAD DUP1 SWAP2 SUB SWAP1 REVERT JUMPDEST PUSH1 0x0 PUSH1 0x1 PUSH1 0x6 PUSH1 0x0 PUSH1 0x5 PUSH1 0x0 SWAP1 SLOAD SWAP1 PUSH2 0x100 EXP SWAP1 DIV PUSH20 0xFFFFFFFFFFFFFFFFFFFFFFFFFFFFFFFFFFFFFFFF AND PUSH20 0xFFFFFFFFFFFFFFFFFFFFFFFFFFFFFFFFFFFFFFFF AND PUSH20 0xFFFFFFFFFFFFFFFFFFFFFFFFFFFFFFFFFFFFFFFF AND DUP2 MSTORE PUSH1 0x20 ADD SWAP1 DUP2 MSTORE PUSH1 0x20 ADD PUSH1 0x0 KECCAK256 SLOAD PUSH2 0xC7E SWAP2 SWAP1 PUSH2 0xF58 JUMP JUMPDEST SWAP1 POP CALLER PUSH20 0xFFFFFFFFFFFFFFFFFFFFFFFFFFFFFFFFFFFFFFFF AND PUSH2 0x8FC DUP3 SWAP1 DUP2 ISZERO MUL SWAP1 PUSH1 0x40 MLOAD PUSH1 0x0 PUSH1 0x40 MLOAD DUP1 DUP4 SUB DUP2 DUP6 DUP9 DUP9 CALL SWAP4 POP POP POP POP ISZERO DUP1 ISZERO PUSH2 0xCC6 JUMPI RETURNDATASIZE PUSH1 0x0 DUP1 RETURNDATACOPY RETURNDATASIZE PUSH1 0x0 REVERT JUMPDEST POP PUSH1 0x3 PUSH1 0x7 PUSH1 0x0 PUSH2 0x100 EXP DUP2 SLOAD DUP2 PUSH1 0xFF MUL NOT AND SWAP1 DUP4 PUSH1 0x3 DUP2 GT ISZERO PUSH2 0xCED JUMPI PUSH2 0xCEC PUSH2 0x1072 JUMP JUMPDEST JUMPDEST MUL OR SWAP1 SSTORE POP POP JUMP JUMPDEST PUSH1 0x0 DUP2 CALLDATALOAD SWAP1 POP PUSH2 0xD04 DUP2 PUSH2 0x11B0 JUMP JUMPDEST SWAP3 SWAP2 POP POP JUMP JUMPDEST PUSH1 0x0 PUSH1 0x20 DUP3 DUP5 SUB SLT ISZERO PUSH2 0xD20 JUMPI PUSH2 0xD1F PUSH2 0x10A1 JUMP JUMPDEST JUMPDEST PUSH1 0x0 PUSH2 0xD2E DUP5 DUP3 DUP6 ADD PUSH2 0xCF5 JUMP JUMPDEST SWAP2 POP POP SWAP3 SWAP2 POP POP JUMP JUMPDEST PUSH2 0xD40 DUP2 PUSH2 0xFE2 JUMP JUMPDEST DUP3 MSTORE POP POP JUMP JUMPDEST PUSH2 0xD4F DUP2 PUSH2 0x1031 JUMP JUMPDEST DUP3 MSTORE POP POP JUMP JUMPDEST PUSH1 0x0 PUSH2 0xD62 PUSH1 0x19 DUP4 PUSH2 0xF47 JUMP JUMPDEST SWAP2 POP PUSH2 0xD6D DUP3 PUSH2 0x10A6 JUMP JUMPDEST PUSH1 0x20 DUP3 ADD SWAP1 POP SWAP2 SWAP1 POP JUMP JUMPDEST PUSH1 0x0 PUSH2 0xD85 PUSH1 0x17 DUP4 PUSH2 0xF47 JUMP JUMPDEST SWAP2 POP PUSH2 0xD90 DUP3 PUSH2 0x10CF JUMP JUMPDEST PUSH1 0x20 DUP3 ADD SWAP1 POP SWAP2 SWAP1 POP JUMP JUMPDEST PUSH1 0x0 PUSH2 0xDA8 PUSH1 0x17 DUP4 PUSH2 0xF47 JUMP JUMPDEST SWAP2 POP PUSH2 0xDB3 DUP3 PUSH2 0x10F8 JUMP JUMPDEST PUSH1 0x20 DUP3 ADD SWAP1 POP SWAP2 SWAP1 POP JUMP JUMPDEST PUSH1 0x0 PUSH2 0xDCB PUSH1 0x15 DUP4 PUSH2 0xF47 JUMP JUMPDEST SWAP2 POP PUSH2 0xDD6 DUP3 PUSH2 0x1121 JUMP JUMPDEST PUSH1 0x20 DUP3 ADD SWAP1 POP SWAP2 SWAP1 POP JUMP JUMPDEST PUSH1 0x0 PUSH2 0xDEE PUSH1 0x20 DUP4 PUSH2 0xF47 JUMP JUMPDEST SWAP2 POP PUSH2 0xDF9 DUP3 PUSH2 0x114A JUMP JUMPDEST PUSH1 0x20 DUP3 ADD SWAP1 POP SWAP2 SWAP1 POP JUMP JUMPDEST PUSH1 0x0 PUSH2 0xE11 PUSH1 0x18 DUP4 PUSH2 0xF47 JUMP JUMPDEST SWAP2 POP PUSH2 0xE1C DUP3 PUSH2 0x1173 JUMP JUMPDEST PUSH1 0x20 DUP3 ADD SWAP1 POP SWAP2 SWAP1 POP JUMP JUMPDEST PUSH2 0xE30 DUP2 PUSH2 0x1027 JUMP JUMPDEST DUP3 MSTORE POP POP JUMP JUMPDEST PUSH1 0x0 PUSH1 0x20 DUP3 ADD SWAP1 POP PUSH2 0xE4B PUSH1 0x0 DUP4 ADD DUP5 PUSH2 0xD37 JUMP JUMPDEST SWAP3 SWAP2 POP POP JUMP JUMPDEST PUSH1 0x0 PUSH1 0x20 DUP3 ADD SWAP1 POP PUSH2 0xE66 PUSH1 0x0 DUP4 ADD DUP5 PUSH2 0xD46 JUMP JUMPDEST SWAP3 SWAP2 POP POP JUMP JUMPDEST PUSH1 0x0 PUSH1 0x20 DUP3 ADD SWAP1 POP DUP2 DUP2 SUB PUSH1 0x0 DUP4 ADD MSTORE PUSH2 0xE85 DUP2 PUSH2 0xD55 JUMP JUMPDEST SWAP1 POP SWAP2 SWAP1 POP JUMP JUMPDEST PUSH1 0x0 PUSH1 0x20 DUP3 ADD SWAP1 POP DUP2 DUP2 SUB PUSH1 0x0 DUP4 ADD MSTORE PUSH2 0xEA5 DUP2 PUSH2 0xD78 JUMP JUMPDEST SWAP1 POP SWAP2 SWAP1 POP JUMP JUMPDEST PUSH1 0x0 PUSH1 0x20 DUP3 ADD SWAP1 POP DUP2 DUP2 SUB PUSH1 0x0 DUP4 ADD MSTORE PUSH2 0xEC5 DUP2 PUSH2 0xD9B JUMP JUMPDEST SWAP1 POP SWAP2 SWAP1 POP JUMP JUMPDEST PUSH1 0x0 PUSH1 0x20 DUP3 ADD SWAP1 POP DUP2 DUP2 SUB PUSH1 0x0 DUP4 ADD MSTORE PUSH2 0xEE5 DUP2 PUSH2 0xDBE JUMP JUMPDEST SWAP1 POP SWAP2 SWAP1 POP JUMP JUMPDEST PUSH1 0x0 PUSH1 0x20 DUP3 ADD SWAP1 POP DUP2 DUP2 SUB PUSH1 0x0 DUP4 ADD MSTORE PUSH2 0xF05 DUP2 PUSH2 0xDE1 JUMP JUMPDEST SWAP1 POP SWAP2 SWAP1 POP JUMP JUMPDEST PUSH1 0x0 PUSH1 0x20 DUP3 ADD SWAP1 POP DUP2 DUP2 SUB PUSH1 0x0 DUP4 ADD MSTORE PUSH2 0xF25 DUP2 PUSH2 0xE04 JUMP JUMPDEST SWAP1 POP SWAP2 SWAP1 POP JUMP JUMPDEST PUSH1 0x0 PUSH1 0x20 DUP3 ADD SWAP1 POP PUSH2 0xF41 PUSH1 0x0 DUP4 ADD DUP5 PUSH2 0xE27 JUMP JUMPDEST SWAP3 SWAP2 POP POP JUMP JUMPDEST PUSH1 0x0 DUP3 DUP3 MSTORE PUSH1 0x20 DUP3 ADD SWAP1 POP SWAP3 SWAP2 POP POP JUMP JUMPDEST PUSH1 0x0 PUSH2 0xF63 DUP3 PUSH2 0x1027 JUMP JUMPDEST SWAP2 POP PUSH2 0xF6E DUP4 PUSH2 0x1027 JUMP JUMPDEST SWAP3 POP DUP3 PUSH32 0xFFFFFFFFFFFFFFFFFFFFFFFFFFFFFFFFFFFFFFFFFFFFFFFFFFFFFFFFFFFFFFFF SUB DUP3 GT ISZERO PUSH2 0xFA3 JUMPI PUSH2 0xFA2 PUSH2 0x1043 JUMP JUMPDEST JUMPDEST DUP3 DUP3 ADD SWAP1 POP SWAP3 SWAP2 POP POP JUMP JUMPDEST PUSH1 0x0 PUSH2 0xFB9 DUP3 PUSH2 0x1027 JUMP JUMPDEST SWAP2 POP PUSH2 0xFC4 DUP4 PUSH2 0x1027 JUMP JUMPDEST SWAP3 POP DUP3 DUP3 LT ISZERO PUSH2 0xFD7 JUMPI PUSH2 0xFD6 PUSH2 0x1043 JUMP JUMPDEST JUMPDEST DUP3 DUP3 SUB SWAP1 POP SWAP3 SWAP2 POP POP JUMP JUMPDEST PUSH1 0x0 PUSH2 0xFED DUP3 PUSH2 0x1007 JUMP JUMPDEST SWAP1 POP SWAP2 SWAP1 POP JUMP JUMPDEST PUSH1 0x0 DUP2 SWAP1 POP PUSH2 0x1002 DUP3 PUSH2 0x119C JUMP JUMPDEST SWAP2 SWAP1 POP JUMP JUMPDEST PUSH1 0x0 PUSH20 0xFFFFFFFFFFFFFFFFFFFFFFFFFFFFFFFFFFFFFFFF DUP3 AND SWAP1 POP SWAP2 SWAP1 POP JUMP JUMPDEST PUSH1 0x0 DUP2 SWAP1 POP SWAP2 SWAP1 POP JUMP JUMPDEST PUSH1 0x0 PUSH2 0x103C DUP3 PUSH2 0xFF4 JUMP JUMPDEST SWAP1 POP SWAP2 SWAP1 POP JUMP JUMPDEST PUSH32 0x4E487B7100000000000000000000000000000000000000000000000000000000 PUSH1 0x0 MSTORE PUSH1 0x11 PUSH1 0x4 MSTORE PUSH1 0x24 PUSH1 0x0 REVERT JUMPDEST PUSH32 0x4E487B7100000000000000000000000000000000000000000000000000000000 PUSH1 0x0 MSTORE PUSH1 0x21 PUSH1 0x4 MSTORE PUSH1 0x24 PUSH1 0x0 REVERT JUMPDEST PUSH1 0x0 DUP1 REVERT JUMPDEST PUSH32 0x41756374696F6E20697320616C72656164792061637469766500000000000000 PUSH1 0x0 DUP3 ADD MSTORE POP JUMP JUMPDEST PUSH32 0x456E642074696D6520697320696E207468652070617374000000000000000000 PUSH1 0x0 DUP3 ADD MSTORE POP JUMP JUMPDEST PUSH32 0x41756374696F6E206973206E6F7420636F6D706C657465000000000000000000 PUSH1 0x0 DUP3 ADD MSTORE POP JUMP JUMPDEST PUSH32 0x41756374696F6E206973206E6F74206163746976650000000000000000000000 PUSH1 0x0 DUP3 ADD MSTORE POP JUMP JUMPDEST PUSH32 0x4F776E61626C653A2063616C6C6572206973206E6F7420746865206F776E6572 PUSH1 0x0 DUP3 ADD MSTORE POP JUMP JUMPDEST PUSH32 0x456E642074696D65206E6F742072656163686564207965740000000000000000 PUSH1 0x0 DUP3 ADD MSTORE POP JUMP JUMPDEST PUSH1 0x4 DUP2 LT PUSH2 0x11AD JUMPI PUSH2 0x11AC PUSH2 0x1072 JUMP JUMPDEST JUMPDEST POP JUMP JUMPDEST PUSH2 0x11B9 DUP2 PUSH2 0x1027 JUMP JUMPDEST DUP2 EQ PUSH2 0x11C4 JUMPI PUSH1 0x0 DUP1 REVERT JUMPDEST POP JUMP INVALID LOG2 PUSH5 0x6970667358 0x22 SLT KECCAK256 DUP7 SWAP6 DUP8 0x28 XOR DUP12 0xD7 PUSH31 0xD033784162A161A3FBDDC3B2563BB5D5C5879E5B3B9ECE5C64736F6C634300 ADDMOD SMOD STOP CALLER "
				},
				"gasEstimates": {
					"creation": {
						"codeDepositCost": "921000",
						"executionCost": "71626",
						"totalCost": "992626"
					},
					"external": {
						"auctionStatus()": "2582",
						"auctionWinner()": "4777",
						"cancelAuction()": "28809",
						"endAuction()": "infinite",
						"endTime()": "2452",
						"minPrice()": "2495",
						"owner()": "2600",
						"placeBid()": "79616",
						"startAuction(uint256)": "73321",
						"startTime()": "2496",
						"withdrawBid()": "infinite"
					}
				},
				"methodIdentifiers": {
					"auctionStatus()": "9d6a0f28",
					"auctionWinner()": "b37a8be3",
					"cancelAuction()": "8fa8b790",
					"endAuction()": "fe67a54b",
					"endTime()": "3197cbb6",
					"minPrice()": "e45be8eb",
					"owner()": "8da5cb5b",
					"placeBid()": "ecfc7ecc",
					"startAuction(uint256)": "065de74c",
					"startTime()": "78e97925",
					"withdrawBid()": "37271cc7"
				}
			},
			"storageLayout": {
				"storage": [
					{
						"astId": 3,
						"contract": "contracts/Auction.sol:Auction",
						"label": "owner",
						"offset": 0,
						"slot": "0",
						"type": "t_address"
					},
					{
						"astId": 5,
						"contract": "contracts/Auction.sol:Auction",
						"label": "startTime",
						"offset": 0,
						"slot": "1",
						"type": "t_uint256"
					},
					{
						"astId": 7,
						"contract": "contracts/Auction.sol:Auction",
						"label": "endTime",
						"offset": 0,
						"slot": "2",
						"type": "t_uint256"
					},
					{
						"astId": 10,
						"contract": "contracts/Auction.sol:Auction",
						"label": "minPrice",
						"offset": 0,
						"slot": "3",
						"type": "t_uint256"
					},
					{
						"astId": 12,
						"contract": "contracts/Auction.sol:Auction",
						"label": "highestBidder",
						"offset": 0,
						"slot": "4",
						"type": "t_address"
					},
					{
						"astId": 14,
						"contract": "contracts/Auction.sol:Auction",
						"label": "secondHighestBidder",
						"offset": 0,
						"slot": "5",
						"type": "t_address"
					},
					{
						"astId": 18,
						"contract": "contracts/Auction.sol:Auction",
						"label": "bids",
						"offset": 0,
						"slot": "6",
						"type": "t_mapping(t_address,t_uint256)"
					},
					{
						"astId": 26,
						"contract": "contracts/Auction.sol:Auction",
						"label": "auctionStatus",
						"offset": 0,
						"slot": "7",
						"type": "t_enum(AuctionStatus)23"
					}
				],
				"types": {
					"t_address": {
						"encoding": "inplace",
						"label": "address",
						"numberOfBytes": "20"
					},
					"t_enum(AuctionStatus)23": {
						"encoding": "inplace",
						"label": "enum Auction.AuctionStatus",
						"numberOfBytes": "1"
					},
					"t_mapping(t_address,t_uint256)": {
						"encoding": "mapping",
						"key": "t_address",
						"label": "mapping(address => uint256)",
						"numberOfBytes": "32",
						"value": "t_uint256"
					},
					"t_uint256": {
						"encoding": "inplace",
						"label": "uint256",
						"numberOfBytes": "32"
					}
				}
			},
			"userdoc": {
				"kind": "user",
				"methods": {},
				"version": 1
			}
		}
	}
}